{
  "contractName": "BaseSafe",
  "abi": [
    {
      "constant": false,
      "inputs": [
        {
          "name": "owner",
          "type": "address"
        },
        {
          "name": "_threshold",
          "type": "uint256"
        }
      ],
      "name": "addOwnerWithThreshold",
      "outputs": [],
      "payable": false,
      "stateMutability": "nonpayable",
      "type": "function"
    },
    {
      "constant": true,
      "inputs": [
        {
          "name": "owner",
          "type": "address"
        }
      ],
      "name": "isOwner",
      "outputs": [
        {
          "name": "",
          "type": "bool"
        }
      ],
      "payable": false,
      "stateMutability": "view",
      "type": "function"
    },
    {
      "constant": false,
      "inputs": [
        {
          "name": "to",
          "type": "address"
        },
        {
          "name": "value",
          "type": "uint256"
        },
        {
          "name": "data",
          "type": "bytes"
        },
        {
          "name": "operation",
          "type": "uint8"
        }
      ],
      "name": "execTransactionFromModule",
      "outputs": [
        {
          "name": "success",
          "type": "bool"
        }
      ],
      "payable": false,
      "stateMutability": "nonpayable",
      "type": "function"
    },
    {
      "constant": false,
      "inputs": [
        {
          "name": "module",
          "type": "address"
        }
      ],
      "name": "enableModule",
      "outputs": [],
      "payable": false,
      "stateMutability": "nonpayable",
      "type": "function"
    },
    {
      "constant": false,
      "inputs": [
        {
          "name": "_threshold",
          "type": "uint256"
        }
      ],
      "name": "changeThreshold",
      "outputs": [],
      "payable": false,
      "stateMutability": "nonpayable",
      "type": "function"
    },
    {
      "constant": true,
      "inputs": [],
      "name": "SENTINEL_MODULES",
      "outputs": [
        {
          "name": "",
          "type": "address"
        }
      ],
      "payable": false,
      "stateMutability": "view",
      "type": "function"
    },
    {
      "constant": true,
      "inputs": [],
      "name": "SENTINEL_OWNERS",
      "outputs": [
        {
          "name": "",
          "type": "address"
        }
      ],
      "payable": false,
      "stateMutability": "view",
      "type": "function"
    },
    {
      "constant": true,
      "inputs": [],
      "name": "getOwners",
      "outputs": [
        {
          "name": "",
          "type": "address[]"
        }
      ],
      "payable": false,
      "stateMutability": "view",
      "type": "function"
    },
    {
      "constant": true,
      "inputs": [],
      "name": "getModules",
      "outputs": [
        {
          "name": "",
          "type": "address[]"
        }
      ],
      "payable": false,
      "stateMutability": "view",
      "type": "function"
    },
    {
      "constant": false,
      "inputs": [
        {
          "name": "prevModule",
          "type": "address"
        },
        {
          "name": "module",
          "type": "address"
        }
      ],
      "name": "disableModule",
      "outputs": [],
      "payable": false,
      "stateMutability": "nonpayable",
      "type": "function"
    },
    {
      "constant": false,
      "inputs": [
        {
          "name": "prevOwner",
          "type": "address"
        },
        {
          "name": "oldOwner",
          "type": "address"
        },
        {
          "name": "newOwner",
          "type": "address"
        }
      ],
      "name": "swapOwner",
      "outputs": [],
      "payable": false,
      "stateMutability": "nonpayable",
      "type": "function"
    },
    {
      "constant": true,
      "inputs": [],
      "name": "getThreshold",
      "outputs": [
        {
          "name": "",
          "type": "uint256"
        }
      ],
      "payable": false,
      "stateMutability": "view",
      "type": "function"
    },
    {
      "constant": false,
      "inputs": [
        {
          "name": "prevOwner",
          "type": "address"
        },
        {
          "name": "owner",
          "type": "address"
        },
        {
          "name": "_threshold",
          "type": "uint256"
        }
      ],
      "name": "removeOwner",
      "outputs": [],
      "payable": false,
      "stateMutability": "nonpayable",
      "type": "function"
    },
    {
      "payable": true,
      "stateMutability": "payable",
      "type": "fallback"
    },
    {
      "anonymous": false,
      "inputs": [
        {
          "indexed": false,
          "name": "owner",
          "type": "address"
        }
      ],
      "name": "AddedOwner",
      "type": "event"
    },
    {
      "anonymous": false,
      "inputs": [
        {
          "indexed": false,
          "name": "owner",
          "type": "address"
        }
      ],
      "name": "RemovedOwner",
      "type": "event"
    },
    {
      "anonymous": false,
      "inputs": [
        {
          "indexed": false,
          "name": "threshold",
          "type": "uint256"
        }
      ],
      "name": "ChangedThreshold",
      "type": "event"
    },
    {
      "anonymous": false,
      "inputs": [
        {
          "indexed": false,
          "name": "module",
          "type": "address"
        }
      ],
      "name": "EnabledModule",
      "type": "event"
    },
    {
      "anonymous": false,
      "inputs": [
        {
          "indexed": false,
          "name": "module",
          "type": "address"
        }
      ],
      "name": "DisabledModule",
      "type": "event"
    },
    {
      "anonymous": false,
      "inputs": [
        {
          "indexed": false,
          "name": "newContract",
          "type": "address"
        }
      ],
      "name": "ContractCreation",
      "type": "event"
    }
  ],
  "bytecode": "0x608060405234801561001057600080fd5b50612b06806100206000396000f3fe6080604052600436106100c5576000357c0100000000000000000000000000000000000000000000000000000000900463ffffffff1680630d582f13146100c75780632f54bf6e14610122578063468721a71461018b578063610b5925146102a2578063694e80c3146102f357806385e332cd1461032e5780638cff635514610385578063a0e67e2b146103dc578063b2494df314610448578063e009cfde146104b4578063e318b52b14610525578063e75235b8146105b6578063f8dc5dd9146105e1575b005b3480156100d357600080fd5b50610120600480360360408110156100ea57600080fd5b81019080803573ffffffffffffffffffffffffffffffffffffffff1690602001909291908035906020019092919050505061065c565b005b34801561012e57600080fd5b506101716004803603602081101561014557600080fd5b81019080803573ffffffffffffffffffffffffffffffffffffffff169060200190929190505050610af1565b604051808215151515815260200191505060405180910390f35b34801561019757600080fd5b50610288600480360360808110156101ae57600080fd5b81019080803573ffffffffffffffffffffffffffffffffffffffff16906020019092919080359060200190929190803590602001906401000000008111156101f557600080fd5b82018360208201111561020757600080fd5b8035906020019184600183028401116401000000008311171561022957600080fd5b91908080601f016020809104026020016040519081016040528093929190818152602001838380828437600081840152601f19601f820116905080830192505050505050509192919290803560ff169060200190929190505050610bc3565b604051808215151515815260200191505060405180910390f35b3480156102ae57600080fd5b506102f1600480360360208110156102c557600080fd5b81019080803573ffffffffffffffffffffffffffffffffffffffff169060200190929190505050610d3e565b005b3480156102ff57600080fd5b5061032c6004803603602081101561031657600080fd5b81019080803590602001909291905050506111a7565b005b34801561033a57600080fd5b506103436113f2565b604051808273ffffffffffffffffffffffffffffffffffffffff1673ffffffffffffffffffffffffffffffffffffffff16815260200191505060405180910390f35b34801561039157600080fd5b5061039a6113f7565b604051808273ffffffffffffffffffffffffffffffffffffffff1673ffffffffffffffffffffffffffffffffffffffff16815260200191505060405180910390f35b3480156103e857600080fd5b506103f16113fc565b6040518080602001828103825283818151815260200191508051906020019060200280838360005b83811015610434578082015181840152602081019050610419565b505050509050019250505060405180910390f35b34801561045457600080fd5b5061045d611597565b6040518080602001828103825283818151815260200191508051906020019060200280838360005b838110156104a0578082015181840152602081019050610485565b505050509050019250505060405180910390f35b3480156104c057600080fd5b50610523600480360360408110156104d757600080fd5b81019080803573ffffffffffffffffffffffffffffffffffffffff169060200190929190803573ffffffffffffffffffffffffffffffffffffffff16906020019092919050505061183a565b005b34801561053157600080fd5b506105b46004803603606081101561054857600080fd5b81019080803573ffffffffffffffffffffffffffffffffffffffff169060200190929190803573ffffffffffffffffffffffffffffffffffffffff169060200190929190803573ffffffffffffffffffffffffffffffffffffffff169060200190929190505050611cc8565b005b3480156105c257600080fd5b506105cb61241d565b6040518082815260200191505060405180910390f35b3480156105ed57600080fd5b5061065a6004803603606081101561060457600080fd5b81019080803573ffffffffffffffffffffffffffffffffffffffff169060200190929190803573ffffffffffffffffffffffffffffffffffffffff16906020019092919080359060200190929190505050612427565b005b3073ffffffffffffffffffffffffffffffffffffffff163373ffffffffffffffffffffffffffffffffffffffff16141515610725576040517f08c379a000000000000000000000000000000000000000000000000000000000815260040180806020018281038252602c8152602001807f4d6574686f642063616e206f6e6c792062652063616c6c65642066726f6d207481526020017f68697320636f6e7472616374000000000000000000000000000000000000000081525060400191505060405180910390fd5b600073ffffffffffffffffffffffffffffffffffffffff168273ffffffffffffffffffffffffffffffffffffffff161415801561078f5750600173ffffffffffffffffffffffffffffffffffffffff168273ffffffffffffffffffffffffffffffffffffffff1614155b1515610803576040517f08c379a000000000000000000000000000000000000000000000000000000000815260040180806020018281038252601e8152602001807f496e76616c6964206f776e657220616464726573732070726f7669646564000081525060200191505060405180910390fd5b600073ffffffffffffffffffffffffffffffffffffffff16600160008473ffffffffffffffffffffffffffffffffffffffff1673ffffffffffffffffffffffffffffffffffffffff16815260200190815260200160002060009054906101000a900473ffffffffffffffffffffffffffffffffffffffff1673ffffffffffffffffffffffffffffffffffffffff16141515610906576040517f08c379a000000000000000000000000000000000000000000000000000000000815260040180806020018281038252601b8152602001807f4164647265737320697320616c726561647920616e206f776e6572000000000081525060200191505060405180910390fd5b60016000600173ffffffffffffffffffffffffffffffffffffffff1673ffffffffffffffffffffffffffffffffffffffff16815260200190815260200160002060009054906101000a900473ffffffffffffffffffffffffffffffffffffffff16600160008473ffffffffffffffffffffffffffffffffffffffff1673ffffffffffffffffffffffffffffffffffffffff16815260200190815260200160002060006101000a81548173ffffffffffffffffffffffffffffffffffffffff021916908373ffffffffffffffffffffffffffffffffffffffff1602179055508160016000600173ffffffffffffffffffffffffffffffffffffffff1673ffffffffffffffffffffffffffffffffffffffff16815260200190815260200160002060006101000a81548173ffffffffffffffffffffffffffffffffffffffff021916908373ffffffffffffffffffffffffffffffffffffffff1602179055506002600081548092919060010191905055507f9465fa0c962cc76958e6373a993326400c1c94f8be2fe3a952adfa7f60b2ea2682604051808273ffffffffffffffffffffffffffffffffffffffff1673ffffffffffffffffffffffffffffffffffffffff16815260200191505060405180910390a180600354141515610aed57610aec816111a7565b5b5050565b6000600173ffffffffffffffffffffffffffffffffffffffff168273ffffffffffffffffffffffffffffffffffffffff1614158015610bbc5750600073ffffffffffffffffffffffffffffffffffffffff16600160008473ffffffffffffffffffffffffffffffffffffffff1673ffffffffffffffffffffffffffffffffffffffff16815260200190815260200160002060009054906101000a900473ffffffffffffffffffffffffffffffffffffffff1673ffffffffffffffffffffffffffffffffffffffff1614155b9050919050565b6000600173ffffffffffffffffffffffffffffffffffffffff163373ffffffffffffffffffffffffffffffffffffffff1614158015610c8d5750600073ffffffffffffffffffffffffffffffffffffffff166000803373ffffffffffffffffffffffffffffffffffffffff1673ffffffffffffffffffffffffffffffffffffffff16815260200190815260200160002060009054906101000a900473ffffffffffffffffffffffffffffffffffffffff1673ffffffffffffffffffffffffffffffffffffffff1614155b1515610d27576040517f08c379a00000000000000000000000000000000000000000000000000000000081526004018080602001828103825260308152602001807f4d6574686f642063616e206f6e6c792062652063616c6c65642066726f6d206181526020017f6e20656e61626c6564206d6f64756c650000000000000000000000000000000081525060400191505060405180910390fd5b610d34858585855a612985565b9050949350505050565b3073ffffffffffffffffffffffffffffffffffffffff163373ffffffffffffffffffffffffffffffffffffffff16141515610e07576040517f08c379a000000000000000000000000000000000000000000000000000000000815260040180806020018281038252602c8152602001807f4d6574686f642063616e206f6e6c792062652063616c6c65642066726f6d207481526020017f68697320636f6e7472616374000000000000000000000000000000000000000081525060400191505060405180910390fd5b600073ffffffffffffffffffffffffffffffffffffffff168173ffffffffffffffffffffffffffffffffffffffff1614158015610e715750600173ffffffffffffffffffffffffffffffffffffffff168173ffffffffffffffffffffffffffffffffffffffff1614155b1515610ee5576040517f08c379a000000000000000000000000000000000000000000000000000000000815260040180806020018281038252601f8152602001807f496e76616c6964206d6f64756c6520616464726573732070726f76696465640081525060200191505060405180910390fd5b600073ffffffffffffffffffffffffffffffffffffffff166000808373ffffffffffffffffffffffffffffffffffffffff1673ffffffffffffffffffffffffffffffffffffffff16815260200190815260200160002060009054906101000a900473ffffffffffffffffffffffffffffffffffffffff1673ffffffffffffffffffffffffffffffffffffffff16141515610fe7576040517f08c379a000000000000000000000000000000000000000000000000000000000815260040180806020018281038252601d8152602001807f4d6f64756c652068617320616c7265616479206265656e20616464656400000081525060200191505060405180910390fd5b600080600173ffffffffffffffffffffffffffffffffffffffff1673ffffffffffffffffffffffffffffffffffffffff16815260200190815260200160002060009054906101000a900473ffffffffffffffffffffffffffffffffffffffff166000808373ffffffffffffffffffffffffffffffffffffffff1673ffffffffffffffffffffffffffffffffffffffff16815260200190815260200160002060006101000a81548173ffffffffffffffffffffffffffffffffffffffff021916908373ffffffffffffffffffffffffffffffffffffffff16021790555080600080600173ffffffffffffffffffffffffffffffffffffffff1673ffffffffffffffffffffffffffffffffffffffff16815260200190815260200160002060006101000a81548173ffffffffffffffffffffffffffffffffffffffff021916908373ffffffffffffffffffffffffffffffffffffffff1602179055507fecdf3a3effea5783a3c4c2140e677577666428d44ed9d474a0b3a4c9943f844081604051808273ffffffffffffffffffffffffffffffffffffffff1673ffffffffffffffffffffffffffffffffffffffff16815260200191505060405180910390a150565b3073ffffffffffffffffffffffffffffffffffffffff163373ffffffffffffffffffffffffffffffffffffffff16141515611270576040517f08c379a000000000000000000000000000000000000000000000000000000000815260040180806020018281038252602c8152602001807f4d6574686f642063616e206f6e6c792062652063616c6c65642066726f6d207481526020017f68697320636f6e7472616374000000000000000000000000000000000000000081525060400191505060405180910390fd5b6002548111151515611310576040517f08c379a00000000000000000000000000000000000000000000000000000000081526004018080602001828103825260238152602001807f5468726573686f6c642063616e6e6f7420657863656564206f776e657220636f81526020017f756e74000000000000000000000000000000000000000000000000000000000081525060400191505060405180910390fd5b600181101515156113af576040517f08c379a00000000000000000000000000000000000000000000000000000000081526004018080602001828103825260248152602001807f5468726573686f6c64206e6565647320746f206265206772656174657220746881526020017f616e20300000000000000000000000000000000000000000000000000000000081525060400191505060405180910390fd5b806003819055507f610f7ff2b304ae8903c3de74c60c6ab1f7d6226b3f52c5161905bb5ad4039c936003546040518082815260200191505060405180910390a150565b600181565b600181565b6060806002546040519080825280602002602001820160405280156114305781602001602082028038833980820191505090505b5090506000809050600060016000600173ffffffffffffffffffffffffffffffffffffffff1673ffffffffffffffffffffffffffffffffffffffff16815260200190815260200160002060009054906101000a900473ffffffffffffffffffffffffffffffffffffffff1690505b600173ffffffffffffffffffffffffffffffffffffffff168173ffffffffffffffffffffffffffffffffffffffff1614151561158e578083838151811015156114e357fe5b9060200190602002019073ffffffffffffffffffffffffffffffffffffffff16908173ffffffffffffffffffffffffffffffffffffffff1681525050600160008273ffffffffffffffffffffffffffffffffffffffff1673ffffffffffffffffffffffffffffffffffffffff16815260200190815260200160002060009054906101000a900473ffffffffffffffffffffffffffffffffffffffff169050818060010192505061149e565b82935050505090565b606060008090506000806000600173ffffffffffffffffffffffffffffffffffffffff1673ffffffffffffffffffffffffffffffffffffffff16815260200190815260200160002060009054906101000a900473ffffffffffffffffffffffffffffffffffffffff1690505b600173ffffffffffffffffffffffffffffffffffffffff168173ffffffffffffffffffffffffffffffffffffffff161415156116a7576000808273ffffffffffffffffffffffffffffffffffffffff1673ffffffffffffffffffffffffffffffffffffffff16815260200190815260200160002060009054906101000a900473ffffffffffffffffffffffffffffffffffffffff1690508180600101925050611603565b6060826040519080825280602002602001820160405280156116d85781602001602082028038833980820191505090505b50905060009250600080600173ffffffffffffffffffffffffffffffffffffffff1673ffffffffffffffffffffffffffffffffffffffff16815260200190815260200160002060009054906101000a900473ffffffffffffffffffffffffffffffffffffffff1691505b600173ffffffffffffffffffffffffffffffffffffffff168273ffffffffffffffffffffffffffffffffffffffff161415156118315781818481518110151561178757fe5b9060200190602002019073ffffffffffffffffffffffffffffffffffffffff16908173ffffffffffffffffffffffffffffffffffffffff16815250506000808373ffffffffffffffffffffffffffffffffffffffff1673ffffffffffffffffffffffffffffffffffffffff16815260200190815260200160002060009054906101000a900473ffffffffffffffffffffffffffffffffffffffff1691508280600101935050611742565b80935050505090565b3073ffffffffffffffffffffffffffffffffffffffff163373ffffffffffffffffffffffffffffffffffffffff16141515611903576040517f08c379a000000000000000000000000000000000000000000000000000000000815260040180806020018281038252602c8152602001807f4d6574686f642063616e206f6e6c792062652063616c6c65642066726f6d207481526020017f68697320636f6e7472616374000000000000000000000000000000000000000081525060400191505060405180910390fd5b600073ffffffffffffffffffffffffffffffffffffffff168173ffffffffffffffffffffffffffffffffffffffff161415801561196d5750600173ffffffffffffffffffffffffffffffffffffffff168173ffffffffffffffffffffffffffffffffffffffff1614155b15156119e1576040517f08c379a000000000000000000000000000000000000000000000000000000000815260040180806020018281038252601f8152602001807f496e76616c6964206d6f64756c6520616464726573732070726f76696465640081525060200191505060405180910390fd5b8073ffffffffffffffffffffffffffffffffffffffff166000808473ffffffffffffffffffffffffffffffffffffffff1673ffffffffffffffffffffffffffffffffffffffff16815260200190815260200160002060009054906101000a900473ffffffffffffffffffffffffffffffffffffffff1673ffffffffffffffffffffffffffffffffffffffff16141515611b08576040517f08c379a00000000000000000000000000000000000000000000000000000000081526004018080602001828103825260288152602001807f496e76616c696420707265764d6f64756c652c206d6f64756c6520706169722081526020017f70726f766964656400000000000000000000000000000000000000000000000081525060400191505060405180910390fd5b6000808273ffffffffffffffffffffffffffffffffffffffff1673ffffffffffffffffffffffffffffffffffffffff16815260200190815260200160002060009054906101000a900473ffffffffffffffffffffffffffffffffffffffff166000808473ffffffffffffffffffffffffffffffffffffffff1673ffffffffffffffffffffffffffffffffffffffff16815260200190815260200160002060006101000a81548173ffffffffffffffffffffffffffffffffffffffff021916908373ffffffffffffffffffffffffffffffffffffffff16021790555060008060008373ffffffffffffffffffffffffffffffffffffffff1673ffffffffffffffffffffffffffffffffffffffff16815260200190815260200160002060006101000a81548173ffffffffffffffffffffffffffffffffffffffff021916908373ffffffffffffffffffffffffffffffffffffffff1602179055507faab4fa2b463f581b2b32cb3b7e3b704b9ce37cc209b5fb4d77e593ace405427681604051808273ffffffffffffffffffffffffffffffffffffffff1673ffffffffffffffffffffffffffffffffffffffff16815260200191505060405180910390a15050565b3073ffffffffffffffffffffffffffffffffffffffff163373ffffffffffffffffffffffffffffffffffffffff16141515611d91576040517f08c379a000000000000000000000000000000000000000000000000000000000815260040180806020018281038252602c8152602001807f4d6574686f642063616e206f6e6c792062652063616c6c65642066726f6d207481526020017f68697320636f6e7472616374000000000000000000000000000000000000000081525060400191505060405180910390fd5b600073ffffffffffffffffffffffffffffffffffffffff168173ffffffffffffffffffffffffffffffffffffffff1614158015611dfb5750600173ffffffffffffffffffffffffffffffffffffffff168173ffffffffffffffffffffffffffffffffffffffff1614155b1515611e6f576040517f08c379a000000000000000000000000000000000000000000000000000000000815260040180806020018281038252601e8152602001807f496e76616c6964206f776e657220616464726573732070726f7669646564000081525060200191505060405180910390fd5b600073ffffffffffffffffffffffffffffffffffffffff16600160008373ffffffffffffffffffffffffffffffffffffffff1673ffffffffffffffffffffffffffffffffffffffff16815260200190815260200160002060009054906101000a900473ffffffffffffffffffffffffffffffffffffffff1673ffffffffffffffffffffffffffffffffffffffff16141515611f72576040517f08c379a000000000000000000000000000000000000000000000000000000000815260040180806020018281038252601b8152602001807f4164647265737320697320616c726561647920616e206f776e6572000000000081525060200191505060405180910390fd5b600073ffffffffffffffffffffffffffffffffffffffff168273ffffffffffffffffffffffffffffffffffffffff1614158015611fdc5750600173ffffffffffffffffffffffffffffffffffffffff168273ffffffffffffffffffffffffffffffffffffffff1614155b1515612050576040517f08c379a000000000000000000000000000000000000000000000000000000000815260040180806020018281038252601e8152602001807f496e76616c6964206f776e657220616464726573732070726f7669646564000081525060200191505060405180910390fd5b8173ffffffffffffffffffffffffffffffffffffffff16600160008573ffffffffffffffffffffffffffffffffffffffff1673ffffffffffffffffffffffffffffffffffffffff16815260200190815260200160002060009054906101000a900473ffffffffffffffffffffffffffffffffffffffff1673ffffffffffffffffffffffffffffffffffffffff16141515612178576040517f08c379a00000000000000000000000000000000000000000000000000000000081526004018080602001828103825260268152602001807f496e76616c696420707265764f776e65722c206f776e6572207061697220707281526020017f6f7669646564000000000000000000000000000000000000000000000000000081525060400191505060405180910390fd5b600160008373ffffffffffffffffffffffffffffffffffffffff1673ffffffffffffffffffffffffffffffffffffffff16815260200190815260200160002060009054906101000a900473ffffffffffffffffffffffffffffffffffffffff16600160008373ffffffffffffffffffffffffffffffffffffffff1673ffffffffffffffffffffffffffffffffffffffff16815260200190815260200160002060006101000a81548173ffffffffffffffffffffffffffffffffffffffff021916908373ffffffffffffffffffffffffffffffffffffffff16021790555080600160008573ffffffffffffffffffffffffffffffffffffffff1673ffffffffffffffffffffffffffffffffffffffff16815260200190815260200160002060006101000a81548173ffffffffffffffffffffffffffffffffffffffff021916908373ffffffffffffffffffffffffffffffffffffffff1602179055506000600160008473ffffffffffffffffffffffffffffffffffffffff1673ffffffffffffffffffffffffffffffffffffffff16815260200190815260200160002060006101000a81548173ffffffffffffffffffffffffffffffffffffffff021916908373ffffffffffffffffffffffffffffffffffffffff1602179055507ff8d49fc529812e9a7c5c50e69c20f0dccc0db8fa95c98bc58cc9a4f1c1299eaf82604051808273ffffffffffffffffffffffffffffffffffffffff1673ffffffffffffffffffffffffffffffffffffffff16815260200191505060405180910390a17f9465fa0c962cc76958e6373a993326400c1c94f8be2fe3a952adfa7f60b2ea2681604051808273ffffffffffffffffffffffffffffffffffffffff1673ffffffffffffffffffffffffffffffffffffffff16815260200191505060405180910390a1505050565b6000600354905090565b3073ffffffffffffffffffffffffffffffffffffffff163373ffffffffffffffffffffffffffffffffffffffff161415156124f0576040517f08c379a000000000000000000000000000000000000000000000000000000000815260040180806020018281038252602c8152602001807f4d6574686f642063616e206f6e6c792062652063616c6c65642066726f6d207481526020017f68697320636f6e7472616374000000000000000000000000000000000000000081525060400191505060405180910390fd5b8060016002540310151515612593576040517f08c379a00000000000000000000000000000000000000000000000000000000081526004018080602001828103825260358152602001807f4e6577206f776e657220636f756e74206e6565647320746f206265206c61726781526020017f6572207468616e206e6577207468726573686f6c64000000000000000000000081525060400191505060405180910390fd5b600073ffffffffffffffffffffffffffffffffffffffff168273ffffffffffffffffffffffffffffffffffffffff16141580156125fd5750600173ffffffffffffffffffffffffffffffffffffffff168273ffffffffffffffffffffffffffffffffffffffff1614155b1515612671576040517f08c379a000000000000000000000000000000000000000000000000000000000815260040180806020018281038252601e8152602001807f496e76616c6964206f776e657220616464726573732070726f7669646564000081525060200191505060405180910390fd5b8173ffffffffffffffffffffffffffffffffffffffff16600160008573ffffffffffffffffffffffffffffffffffffffff1673ffffffffffffffffffffffffffffffffffffffff16815260200190815260200160002060009054906101000a900473ffffffffffffffffffffffffffffffffffffffff1673ffffffffffffffffffffffffffffffffffffffff16141515612799576040517f08c379a00000000000000000000000000000000000000000000000000000000081526004018080602001828103825260268152602001807f496e76616c696420707265764f776e65722c206f776e6572207061697220707281526020017f6f7669646564000000000000000000000000000000000000000000000000000081525060400191505060405180910390fd5b600160008373ffffffffffffffffffffffffffffffffffffffff1673ffffffffffffffffffffffffffffffffffffffff16815260200190815260200160002060009054906101000a900473ffffffffffffffffffffffffffffffffffffffff16600160008573ffffffffffffffffffffffffffffffffffffffff1673ffffffffffffffffffffffffffffffffffffffff16815260200190815260200160002060006101000a81548173ffffffffffffffffffffffffffffffffffffffff021916908373ffffffffffffffffffffffffffffffffffffffff1602179055506000600160008473ffffffffffffffffffffffffffffffffffffffff1673ffffffffffffffffffffffffffffffffffffffff16815260200190815260200160002060006101000a81548173ffffffffffffffffffffffffffffffffffffffff021916908373ffffffffffffffffffffffffffffffffffffffff160217905550600260008154809291906001900391905055507ff8d49fc529812e9a7c5c50e69c20f0dccc0db8fa95c98bc58cc9a4f1c1299eaf82604051808273ffffffffffffffffffffffffffffffffffffffff1673ffffffffffffffffffffffffffffffffffffffff16815260200191505060405180910390a1806003541415156129805761297f816111a7565b5b505050565b600080600281111561299357fe5b83600281111561299f57fe5b14156129b8576129b186868685612a98565b9050612a8f565b600160028111156129c557fe5b8360028111156129d157fe5b14156129e9576129e2868584612ab1565b9050612a8e565b60006129f485612ac8565b9050600073ffffffffffffffffffffffffffffffffffffffff168173ffffffffffffffffffffffffffffffffffffffff16141591507f4db17dd5e4732fb6da34a148104a592783ca119a1e7bb8829eba6cbadef0b51181604051808273ffffffffffffffffffffffffffffffffffffffff1673ffffffffffffffffffffffffffffffffffffffff16815260200191505060405180910390a1505b5b95945050505050565b6000806000845160208601878987f19050949350505050565b60008060008451602086018786f490509392505050565b60008151602083016000f0905091905056fea165627a7a72305820b8bd54710fb6b01d8313ad17b55e61fe409d005785cbb9fa8b495d13fb6a04bc0029",
  "source": "pragma solidity ^0.5.0;\nimport \"./Module.sol\";\nimport \"./ModuleManager.sol\";\nimport \"./OwnerManager.sol\";\n\n\n/// @title Base Safe - A multisignature wallet with support for modules and owners. This contract needs to be extented to add functionality to execute transactions.\n/// @author Stefan George - <stefan@gnosis.pm>\n/// @author Richard Meissner - <richard@gnosis.pm>\ncontract BaseSafe is ModuleManager, OwnerManager {\n\n    /// @dev Setup function sets initial storage of contract.\n    /// @param _owners List of Safe owners.\n    /// @param _threshold Number of required confirmations for a Safe transaction.\n    /// @param to Contract address for optional delegate call.\n    /// @param data Data payload for optional delegate call.\n    function setupSafe(address[] memory _owners, uint256 _threshold, address to, bytes memory data)\n        internal\n    {\n        setupOwners(_owners, _threshold);\n        // As setupOwners can only be called if the contract has not been initialized we don't need a check for setupModules\n        setupModules(to, data);\n    }\n}\n",
  "sourcePath": "/Users/antonvs/Projects/sandbox/gnosis-safe/contracts/safe-contracts/base/BaseSafe.sol",
  "compiler": {
    "name": "solc",
    "version": "0.5.0+commit.1d4f565a.Emscripten.clang"
  },
  "schemaVersion": "3.0.1",
  "updatedAt": "2019-01-25T22:22:23.844Z",
  "devdoc": {
    "author": "Stefan George - <stefan@gnosis.pm>Richard Meissner - <richard@gnosis.pm>",
    "methods": {
      "addOwnerWithThreshold(address,uint256)": {
        "details": "Allows to add a new owner to the Safe and update the threshold at the same time.      This can only be done via a Safe transaction.",
        "params": {
          "_threshold": "New threshold.",
          "owner": "New owner address."
        }
      },
      "changeThreshold(uint256)": {
        "details": "Allows to update the number of required confirmations by Safe owners.      This can only be done via a Safe transaction.",
        "params": {
          "_threshold": "New threshold."
        }
      },
      "disableModule(address,address)": {
        "details": "Allows to remove a module from the whitelist.      This can only be done via a Safe transaction.",
        "params": {
          "module": "Module to be removed.",
          "prevModule": "Module that pointed to the module to be removed in the linked list"
        }
      },
      "enableModule(address)": {
        "details": "Allows to add a module to the whitelist.      This can only be done via a Safe transaction.",
        "params": {
          "module": "Module to be whitelisted."
        }
      },
      "execTransactionFromModule(address,uint256,bytes,uint8)": {
        "details": "Allows a Module to execute a Safe transaction without any further confirmations.",
        "params": {
          "data": "Data payload of module transaction.",
          "operation": "Operation type of module transaction.",
          "to": "Destination address of module transaction.",
          "value": "Ether value of module transaction."
        }
      },
      "getModules()": {
        "details": "Returns array of modules.",
        "return": "Array of modules."
      },
      "getOwners()": {
        "details": "Returns array of owners.",
        "return": "Array of Safe owners."
      },
      "removeOwner(address,address,uint256)": {
        "details": "Allows to remove an owner from the Safe and update the threshold at the same time.      This can only be done via a Safe transaction.",
        "params": {
          "_threshold": "New threshold.",
          "owner": "Owner address to be removed.",
          "prevOwner": "Owner that pointed to the owner to be removed in the linked list"
        }
      },
      "swapOwner(address,address,address)": {
        "details": "Allows to swap/replace an owner from the Safe with another address.      This can only be done via a Safe transaction.",
        "params": {
          "newOwner": "New owner address.",
          "oldOwner": "Owner address to be replaced.",
          "prevOwner": "Owner that pointed to the owner to be replaced in the linked list"
        }
      }
    },
    "title": "Base Safe - A multisignature wallet with support for modules and owners. This contract needs to be extented to add functionality to execute transactions."
  },
  "userdoc": {
    "methods": {}
  }
}