{
  "contractName": "DelegateConstructorProxy",
  "abi": [
    {
      "constant": true,
      "inputs": [],
      "name": "proxyType",
      "outputs": [
        {
          "name": "",
          "type": "uint256"
        }
      ],
      "payable": false,
      "stateMutability": "pure",
      "type": "function"
    },
    {
      "constant": true,
      "inputs": [],
      "name": "implementation",
      "outputs": [
        {
          "name": "",
          "type": "address"
        }
      ],
      "payable": false,
      "stateMutability": "view",
      "type": "function"
    },
    {
      "inputs": [
        {
          "name": "_masterCopy",
          "type": "address"
        },
        {
          "name": "initializer",
          "type": "bytes"
        }
      ],
      "payable": false,
      "stateMutability": "nonpayable",
      "type": "constructor"
    },
    {
      "payable": true,
      "stateMutability": "payable",
      "type": "fallback"
    }
  ],
  "bytecode": "0x608060405234801561001057600080fd5b506040516103653803806103658339810180604052604081101561003357600080fd5b8101908080519060200190929190805164010000000081111561005557600080fd5b8281019050602081018481111561006b57600080fd5b815185600182028301116401000000008211171561008857600080fd5b505092919050505081600073ffffffffffffffffffffffffffffffffffffffff168173ffffffffffffffffffffffffffffffffffffffff161415151561015c576040517f08c379a00000000000000000000000000000000000000000000000000000000081526004018080602001828103825260248152602001807f496e76616c6964206d617374657220636f707920616464726573732070726f7681526020017f696465640000000000000000000000000000000000000000000000000000000081525060400191505060405180910390fd5b806000806101000a81548173ffffffffffffffffffffffffffffffffffffffff021916908373ffffffffffffffffffffffffffffffffffffffff160217905550506000815111156101e95773ffffffffffffffffffffffffffffffffffffffff60005416600080835160208501846127105a03f46040513d6000823e60008214156101e5573d81fd5b5050505b505061016b806101fa6000396000f3fe60806040526004361061004c576000357c0100000000000000000000000000000000000000000000000000000000900463ffffffff1680634555d5c91461008b5780635c60da1b146100b6575b73ffffffffffffffffffffffffffffffffffffffff600054163660008037600080366000845af43d6000803e6000811415610086573d6000fd5b3d6000f35b34801561009757600080fd5b506100a061010d565b6040518082815260200191505060405180910390f35b3480156100c257600080fd5b506100cb610116565b604051808273ffffffffffffffffffffffffffffffffffffffff1673ffffffffffffffffffffffffffffffffffffffff16815260200191505060405180910390f35b60006002905090565b60008060009054906101000a900473ffffffffffffffffffffffffffffffffffffffff1690509056fea165627a7a723058207bdf046196b29b66d9d13479b51da24c7dd04bf9c70b54fdc19df9d0cad30c1c0029",
  "source": "pragma solidity ^0.5.0;\nimport \"./Proxy.sol\";\n\n\n/// @title Delegate Constructor Proxy - Generic proxy contract allows to execute all transactions applying the code of a master contract. It is possible to send along initialization data with the constructor.\n/// @author Stefan George - <stefan@gnosis.pm>\n/// @author Richard Meissner - <richard@gnosis.pm>\ncontract DelegateConstructorProxy is Proxy {\n\n    /// @dev Constructor function sets address of master copy contract.\n    /// @param _masterCopy Master copy address.\n    /// @param initializer Data used for a delegate call to initialize the contract.\n    constructor(address _masterCopy, bytes memory initializer) Proxy(_masterCopy)\n        public\n    {\n        if (initializer.length > 0) {\n            // solium-disable-next-line security/no-inline-assembly\n            assembly {\n                let masterCopy := and(sload(0), 0xffffffffffffffffffffffffffffffffffffffff)\n                let success := delegatecall(sub(gas, 10000), masterCopy, add(initializer, 0x20), mload(initializer), 0, 0)\n                let ptr := mload(0x40)\n                returndatacopy(ptr, 0, returndatasize)\n                if eq(success, 0) { revert(ptr, returndatasize) }\n            }\n        }\n    }\n}\n",
  "sourcePath": "/Users/antonvs/Projects/sandbox/gnosis-safe/contracts/safe-contracts/proxies/DelegateConstructorProxy.sol",
  "compiler": {
    "name": "solc",
    "version": "0.5.0+commit.1d4f565a.Emscripten.clang"
  },
  "schemaVersion": "3.0.1",
  "updatedAt": "2019-01-25T22:22:23.859Z",
  "devdoc": {
    "author": "Stefan George - <stefan@gnosis.pm>Richard Meissner - <richard@gnosis.pm>",
    "methods": {
      "constructor": {
        "details": "Constructor function sets address of master copy contract.",
        "params": {
          "_masterCopy": "Master copy address.",
          "initializer": "Data used for a delegate call to initialize the contract."
        }
      }
    },
    "title": "Delegate Constructor Proxy - Generic proxy contract allows to execute all transactions applying the code of a master contract. It is possible to send along initialization data with the constructor."
  },
  "userdoc": {
    "methods": {}
  }
}