{
  "contractName": "MockContract",
  "abi": [
    {
      "constant": true,
      "inputs": [],
      "name": "MOCKS_LIST_END_HASH",
      "outputs": [
        {
          "name": "",
          "type": "bytes32"
        }
      ],
      "payable": false,
      "stateMutability": "view",
      "type": "function"
    },
    {
      "constant": true,
      "inputs": [],
      "name": "MOCKS_LIST_START",
      "outputs": [
        {
          "name": "",
          "type": "bytes32"
        }
      ],
      "payable": false,
      "stateMutability": "view",
      "type": "function"
    },
    {
      "constant": true,
      "inputs": [],
      "name": "MOCKS_LIST_END",
      "outputs": [
        {
          "name": "",
          "type": "bytes"
        }
      ],
      "payable": false,
      "stateMutability": "view",
      "type": "function"
    },
    {
      "constant": true,
      "inputs": [],
      "name": "SENTINEL_ANY_MOCKS",
      "outputs": [
        {
          "name": "",
          "type": "bytes4"
        }
      ],
      "payable": false,
      "stateMutability": "view",
      "type": "function"
    },
    {
      "inputs": [],
      "payable": false,
      "stateMutability": "nonpayable",
      "type": "constructor"
    },
    {
      "payable": true,
      "stateMutability": "payable",
      "type": "fallback"
    },
    {
      "constant": false,
      "inputs": [
        {
          "name": "response",
          "type": "bytes"
        }
      ],
      "name": "givenAnyReturn",
      "outputs": [],
      "payable": false,
      "stateMutability": "nonpayable",
      "type": "function"
    },
    {
      "constant": false,
      "inputs": [
        {
          "name": "response",
          "type": "bool"
        }
      ],
      "name": "givenAnyReturnBool",
      "outputs": [],
      "payable": false,
      "stateMutability": "nonpayable",
      "type": "function"
    },
    {
      "constant": false,
      "inputs": [
        {
          "name": "response",
          "type": "uint256"
        }
      ],
      "name": "givenAnyReturnUint",
      "outputs": [],
      "payable": false,
      "stateMutability": "nonpayable",
      "type": "function"
    },
    {
      "constant": false,
      "inputs": [
        {
          "name": "response",
          "type": "address"
        }
      ],
      "name": "givenAnyReturnAddress",
      "outputs": [],
      "payable": false,
      "stateMutability": "nonpayable",
      "type": "function"
    },
    {
      "constant": false,
      "inputs": [],
      "name": "givenAnyRevert",
      "outputs": [],
      "payable": false,
      "stateMutability": "nonpayable",
      "type": "function"
    },
    {
      "constant": false,
      "inputs": [
        {
          "name": "message",
          "type": "string"
        }
      ],
      "name": "givenAnyRevertWithMessage",
      "outputs": [],
      "payable": false,
      "stateMutability": "nonpayable",
      "type": "function"
    },
    {
      "constant": false,
      "inputs": [],
      "name": "givenAnyRunOutOfGas",
      "outputs": [],
      "payable": false,
      "stateMutability": "nonpayable",
      "type": "function"
    },
    {
      "constant": false,
      "inputs": [
        {
          "name": "call",
          "type": "bytes"
        },
        {
          "name": "response",
          "type": "bytes"
        }
      ],
      "name": "givenCalldataReturn",
      "outputs": [],
      "payable": false,
      "stateMutability": "nonpayable",
      "type": "function"
    },
    {
      "constant": false,
      "inputs": [
        {
          "name": "call",
          "type": "bytes"
        },
        {
          "name": "response",
          "type": "bool"
        }
      ],
      "name": "givenCalldataReturnBool",
      "outputs": [],
      "payable": false,
      "stateMutability": "nonpayable",
      "type": "function"
    },
    {
      "constant": false,
      "inputs": [
        {
          "name": "call",
          "type": "bytes"
        },
        {
          "name": "response",
          "type": "uint256"
        }
      ],
      "name": "givenCalldataReturnUint",
      "outputs": [],
      "payable": false,
      "stateMutability": "nonpayable",
      "type": "function"
    },
    {
      "constant": false,
      "inputs": [
        {
          "name": "call",
          "type": "bytes"
        },
        {
          "name": "response",
          "type": "address"
        }
      ],
      "name": "givenCalldataReturnAddress",
      "outputs": [],
      "payable": false,
      "stateMutability": "nonpayable",
      "type": "function"
    },
    {
      "constant": false,
      "inputs": [
        {
          "name": "call",
          "type": "bytes"
        },
        {
          "name": "response",
          "type": "bytes"
        }
      ],
      "name": "givenMethodReturn",
      "outputs": [],
      "payable": false,
      "stateMutability": "nonpayable",
      "type": "function"
    },
    {
      "constant": false,
      "inputs": [
        {
          "name": "call",
          "type": "bytes"
        },
        {
          "name": "response",
          "type": "bool"
        }
      ],
      "name": "givenMethodReturnBool",
      "outputs": [],
      "payable": false,
      "stateMutability": "nonpayable",
      "type": "function"
    },
    {
      "constant": false,
      "inputs": [
        {
          "name": "call",
          "type": "bytes"
        },
        {
          "name": "response",
          "type": "uint256"
        }
      ],
      "name": "givenMethodReturnUint",
      "outputs": [],
      "payable": false,
      "stateMutability": "nonpayable",
      "type": "function"
    },
    {
      "constant": false,
      "inputs": [
        {
          "name": "call",
          "type": "bytes"
        },
        {
          "name": "response",
          "type": "address"
        }
      ],
      "name": "givenMethodReturnAddress",
      "outputs": [],
      "payable": false,
      "stateMutability": "nonpayable",
      "type": "function"
    },
    {
      "constant": false,
      "inputs": [
        {
          "name": "call",
          "type": "bytes"
        }
      ],
      "name": "givenCalldataRevert",
      "outputs": [],
      "payable": false,
      "stateMutability": "nonpayable",
      "type": "function"
    },
    {
      "constant": false,
      "inputs": [
        {
          "name": "call",
          "type": "bytes"
        }
      ],
      "name": "givenMethodRevert",
      "outputs": [],
      "payable": false,
      "stateMutability": "nonpayable",
      "type": "function"
    },
    {
      "constant": false,
      "inputs": [
        {
          "name": "call",
          "type": "bytes"
        },
        {
          "name": "message",
          "type": "string"
        }
      ],
      "name": "givenCalldataRevertWithMessage",
      "outputs": [],
      "payable": false,
      "stateMutability": "nonpayable",
      "type": "function"
    },
    {
      "constant": false,
      "inputs": [
        {
          "name": "call",
          "type": "bytes"
        },
        {
          "name": "message",
          "type": "string"
        }
      ],
      "name": "givenMethodRevertWithMessage",
      "outputs": [],
      "payable": false,
      "stateMutability": "nonpayable",
      "type": "function"
    },
    {
      "constant": false,
      "inputs": [
        {
          "name": "call",
          "type": "bytes"
        }
      ],
      "name": "givenCalldataRunOutOfGas",
      "outputs": [],
      "payable": false,
      "stateMutability": "nonpayable",
      "type": "function"
    },
    {
      "constant": false,
      "inputs": [
        {
          "name": "call",
          "type": "bytes"
        }
      ],
      "name": "givenMethodRunOutOfGas",
      "outputs": [],
      "payable": false,
      "stateMutability": "nonpayable",
      "type": "function"
    },
    {
      "constant": false,
      "inputs": [],
      "name": "invocationCount",
      "outputs": [
        {
          "name": "",
          "type": "uint256"
        }
      ],
      "payable": false,
      "stateMutability": "nonpayable",
      "type": "function"
    },
    {
      "constant": false,
      "inputs": [
        {
          "name": "call",
          "type": "bytes"
        }
      ],
      "name": "invocationCountForMethod",
      "outputs": [
        {
          "name": "",
          "type": "uint256"
        }
      ],
      "payable": false,
      "stateMutability": "nonpayable",
      "type": "function"
    },
    {
      "constant": false,
      "inputs": [
        {
          "name": "call",
          "type": "bytes"
        }
      ],
      "name": "invocationCountForCalldata",
      "outputs": [
        {
          "name": "",
          "type": "uint256"
        }
      ],
      "payable": false,
      "stateMutability": "nonpayable",
      "type": "function"
    },
    {
      "constant": false,
      "inputs": [],
      "name": "reset",
      "outputs": [],
      "payable": false,
      "stateMutability": "nonpayable",
      "type": "function"
    },
    {
      "constant": false,
      "inputs": [
        {
          "name": "methodId",
          "type": "bytes4"
        },
        {
          "name": "originalMsgData",
          "type": "bytes"
        }
      ],
      "name": "updateInvocationCount",
      "outputs": [],
      "payable": false,
      "stateMutability": "nonpayable",
      "type": "function"
    }
  ],
  "bytecode": "0x60806040523480156200001157600080fd5b506040805190810160405280600481526020017f30786666000000000000000000000000000000000000000000000000000000008152506000807f0100000000000000000000000000000000000000000000000000000000000000815260200190815260200160002090805190602001906200008f92919062000160565b507f0100000000000000000000000000000000000000000000000000000000000000600560007f01000000000000000000000000000000000000000000000000000000000000007bffffffffffffffffffffffffffffffffffffffffffffffffffffffff19167bffffffffffffffffffffffffffffffffffffffffffffffffffffffff1916815260200190815260200160002060006101000a81548163ffffffff02191690837c0100000000000000000000000000000000000000000000000000000000900402179055506200020f565b828054600181600116156101000203166002900490600052602060002090601f016020900481019282601f10620001a357805160ff1916838001178555620001d4565b82800160010185558215620001d4579182015b82811115620001d3578251825591602001919060010190620001b6565b5b509050620001e39190620001e7565b5090565b6200020c91905b8082111562000208576000816000905550600101620001ee565b5090565b90565b613b52806200021f6000396000f3fe608060405260043610610180576000357c0100000000000000000000000000000000000000000000000000000000900463ffffffff1680630a20119f14610a8957806321fed4d614610ab45780632ed238dc14610b3a57806336ff0ee514610b655780633956dc6b14610ba25780634937c4f614610bb9578063586984a414610c5357806358cbc02514610ced5780635a3855ab14610dde5780636193659414610e7057806367aad04a14610f4b578063682b479714610f7657806368ab6f2f14610fc75780636f4007561461104d5780637cd96ee4146110df57806387abab651461116f5780639a1dc86b146111f55780639eaeed75146112d0578063aa788c55146113ab578063af21ac7814611431578063b3901f291461146c578063c6ee167f14611512578063cf11ff5d146115ed578063d6fe977814611693578063d73ca0ac14611719578063d826f88f146117a9578063e211b8a5146117c0578063eb861f69146117d7578063f07da2291461185d578063f5afa9c1146118c6575b6000803590506001600281111561019357fe5b6001600036604051808383808284378083019250505092505050908152602001604051809103902060009054906101000a900460ff1660028111156101d457fe5b14156102c057600360003660405180838380828437808301925050509250505090815260200160405180910390206040517f08c379a000000000000000000000000000000000000000000000000000000000815260040180806020018281038252838181546001816001161561010002031660029004815260200191508054600181600116156101000203166002900480156102b15780601f10610286576101008083540402835291602001916102b1565b820191906000526020600020905b81548152906001019060200180831161029457829003601f168201915b50509250505060405180910390fd5b6002808111156102cc57fe5b6001600036604051808383808284378083019250505092505050908152602001604051809103902060009054906101000a900460ff16600281111561030d57fe5b141561031c5761031b611956565b5b6060600260003660405180838380828437808301925050509250505090815260200160405180910390208054600181600116156101000203166002900480601f0160208091040260200160405190810160405280929190818152602001828054600181600116156101000203166002900480156103da5780601f106103af576101008083540402835291602001916103da565b820191906000526020600020905b8154815290600101906020018083116103bd57829003601f168201915b505050505090506000815114156106e957600160028111156103f857fe5b60066000847bffffffffffffffffffffffffffffffffffffffffffffffffffffffff19167bffffffffffffffffffffffffffffffffffffffffffffffffffffffff1916815260200190815260200160002060009054906101000a900460ff16600281111561046257fe5b14156105775760086000837bffffffffffffffffffffffffffffffffffffffffffffffffffffffff19167bffffffffffffffffffffffffffffffffffffffffffffffffffffffff191681526020019081526020016000206040517f08c379a000000000000000000000000000000000000000000000000000000000815260040180806020018281038252838181546001816001161561010002031660029004815260200191508054600181600116156101000203166002900480156105685780601f1061053d57610100808354040283529160200191610568565b820191906000526020600020905b81548152906001019060200180831161054b57829003601f168201915b50509250505060405180910390fd5b60028081111561058357fe5b60066000847bffffffffffffffffffffffffffffffffffffffffffffffffffffffff19167bffffffffffffffffffffffffffffffffffffffffffffffffffffffff1916815260200190815260200160002060009054906101000a900460ff1660028111156105ed57fe5b14156105fc576105fb611956565b5b60076000837bffffffffffffffffffffffffffffffffffffffffffffffffffffffff19167bffffffffffffffffffffffffffffffffffffffffffffffffffffffff191681526020019081526020016000208054600181600116156101000203166002900480601f0160208091040260200160405190810160405280929190818152602001828054600181600116156101000203166002900480156106e15780601f106106b6576101008083540402835291602001916106e1565b820191906000526020600020905b8154815290600101906020018083116106c457829003601f168201915b505050505090505b6000815114156108b5576001600281111561070057fe5b600a60009054906101000a900460ff16600281111561071b57fe5b14156107e157600c6040517f08c379a000000000000000000000000000000000000000000000000000000000815260040180806020018281038252838181546001816001161561010002031660029004815260200191508054600181600116156101000203166002900480156107d25780601f106107a7576101008083540402835291602001916107d2565b820191906000526020600020905b8154815290600101906020018083116107b557829003601f168201915b50509250505060405180910390fd5b6002808111156107ed57fe5b600a60009054906101000a900460ff16600281111561080857fe5b141561081757610816611956565b5b600b8054600181600116156101000203166002900480601f0160208091040260200160405190810160405280929190818152602001828054600181600116156101000203166002900480156108ad5780601f10610882576101008083540402835291602001916108ad565b820191906000526020600020905b81548152906001019060200180831161089057829003601f168201915b505050505090505b60603073ffffffffffffffffffffffffffffffffffffffff16620186a08460003660405160240180847bffffffffffffffffffffffffffffffffffffffffffffffffffffffff19167bffffffffffffffffffffffffffffffffffffffffffffffffffffffff19168152602001806020018281038252848482818152602001925080828437600081840152601f19601f8201169050808301925050509450505050506040516020818303038152906040527f58cbc025000000000000000000000000000000000000000000000000000000007bffffffffffffffffffffffffffffffffffffffffffffffffffffffff19166020820180517bffffffffffffffffffffffffffffffffffffffffffffffffffffffff83818316178352505050506040518082805190602001908083835b602083101515610a0857805182526020820191506020810190506020830392506109e3565b6001836020036101000a03801982511681845116808217855250505050505090500191505060006040518083038160008787f1925050503d8060008114610a6b576040519150601f19603f3d011682016040523d82523d6000602084013e610a70565b606091505b5091505060008151141515610a8157fe5b815182602001f35b348015610a9557600080fd5b50610a9e61197b565b6040518082815260200191505060405180910390f35b348015610ac057600080fd5b50610b3860048036036020811015610ad757600080fd5b8101908080359060200190640100000000811115610af457600080fd5b820183602082011115610b0657600080fd5b80359060200191846001830284011164010000000083111715610b2857600080fd5b9091929391929390505050611985565b005b348015610b4657600080fd5b50610b4f611a1f565b6040518082815260200191505060405180910390f35b348015610b7157600080fd5b50610ba060048036036020811015610b8857600080fd5b81019080803515159060200190929190505050611aba565b005b348015610bae57600080fd5b50610bb7611ae5565b005b348015610bc557600080fd5b50610c3d60048036036020811015610bdc57600080fd5b8101908080359060200190640100000000811115610bf957600080fd5b820183602082011115610c0b57600080fd5b80359060200191846001830284011164010000000083111715610c2d57600080fd5b9091929391929390505050611b0b565b6040518082815260200191505060405180910390f35b348015610c5f57600080fd5b50610cd760048036036020811015610c7657600080fd5b8101908080359060200190640100000000811115610c9357600080fd5b820183602082011115610ca557600080fd5b80359060200191846001830284011164010000000083111715610cc757600080fd5b9091929391929390505050611be8565b6040518082815260200191505060405180910390f35b348015610cf957600080fd5b50610ddc60048036036040811015610d1057600080fd5b8101908080357bffffffffffffffffffffffffffffffffffffffffffffffffffffffff1916906020019092919080359060200190640100000000811115610d5657600080fd5b820183602082011115610d6857600080fd5b80359060200191846001830284011164010000000083111715610d8a57600080fd5b91908080601f016020809104026020016040519081016040528093929190818152602001838380828437600081840152601f19601f820116905080830192505050505050509192919290505050611c3f565b005b348015610dea57600080fd5b50610e6e60048036036040811015610e0157600080fd5b8101908080359060200190640100000000811115610e1e57600080fd5b820183602082011115610e3057600080fd5b80359060200191846001830284011164010000000083111715610e5257600080fd5b9091929391929390803515159060200190929190505050611e4c565b005b348015610e7c57600080fd5b50610f4960048036036040811015610e9357600080fd5b8101908080359060200190640100000000811115610eb057600080fd5b820183602082011115610ec257600080fd5b80359060200191846001830284011164010000000083111715610ee457600080fd5b909192939192939080359060200190640100000000811115610f0557600080fd5b820183602082011115610f1757600080fd5b80359060200191846001830284011164010000000083111715610f3957600080fd5b9091929391929390505050611ebe565b005b348015610f5757600080fd5b50610f60611f56565b6040518082815260200191505060405180910390f35b348015610f8257600080fd5b50610fc560048036036020811015610f9957600080fd5b81019080803573ffffffffffffffffffffffffffffffffffffffff169060200190929190505050611f7a565b005b348015610fd357600080fd5b5061104b60048036036020811015610fea57600080fd5b810190808035906020019064010000000081111561100757600080fd5b82018360208201111561101957600080fd5b8035906020019184600183028401116401000000008311171561103b57600080fd5b9091929391929390505050611f8e565b005b34801561105957600080fd5b506110dd6004803603604081101561107057600080fd5b810190808035906020019064010000000081111561108d57600080fd5b82018360208201111561109f57600080fd5b803590602001918460018302840111640100000000831117156110c157600080fd5b9091929391929390803515159060200190929190505050612060565b005b3480156110eb57600080fd5b506110f46120d2565b6040518080602001828103825283818151815260200191508051906020019080838360005b83811015611134578082015181840152602081019050611119565b50505050905090810190601f1680156111615780820380516001836020036101000a031916815260200191505b509250505060405180910390f35b34801561117b57600080fd5b506111f36004803603602081101561119257600080fd5b81019080803590602001906401000000008111156111af57600080fd5b8201836020820111156111c157600080fd5b803590602001918460018302840111640100000000831117156111e357600080fd5b909192939192939050505061210b565b005b34801561120157600080fd5b506112ce6004803603604081101561121857600080fd5b810190808035906020019064010000000081111561123557600080fd5b82018360208201111561124757600080fd5b8035906020019184600183028401116401000000008311171561126957600080fd5b90919293919293908035906020019064010000000081111561128a57600080fd5b82018360208201111561129c57600080fd5b803590602001918460018302840111640100000000831117156112be57600080fd5b9091929391929390505050612145565b005b3480156112dc57600080fd5b506113a9600480360360408110156112f357600080fd5b810190808035906020019064010000000081111561131057600080fd5b82018360208201111561132257600080fd5b8035906020019184600183028401116401000000008311171561134457600080fd5b90919293919293908035906020019064010000000081111561136557600080fd5b82018360208201111561137757600080fd5b8035906020019184600183028401116401000000008311171561139957600080fd5b909192939192939050505061227a565b005b3480156113b757600080fd5b5061142f600480360360208110156113ce57600080fd5b81019080803590602001906401000000008111156113eb57600080fd5b8201836020820111156113fd57600080fd5b8035906020019184600183028401116401000000008311171561141f57600080fd5b909192939192939050505061234c565b005b34801561143d57600080fd5b5061146a6004803603602081101561145457600080fd5b810190808035906020019092919050505061241e565b005b34801561147857600080fd5b506115106004803603604081101561148f57600080fd5b81019080803590602001906401000000008111156114ac57600080fd5b8201836020820111156114be57600080fd5b803590602001918460018302840111640100000000831117156114e057600080fd5b9091929391929390803573ffffffffffffffffffffffffffffffffffffffff169060200190929190505050612432565b005b34801561151e57600080fd5b506115eb6004803603604081101561153557600080fd5b810190808035906020019064010000000081111561155257600080fd5b82018360208201111561156457600080fd5b8035906020019184600183028401116401000000008311171561158657600080fd5b9091929391929390803590602001906401000000008111156115a757600080fd5b8201836020820111156115b957600080fd5b803590602001918460018302840111640100000000831117156115db57600080fd5b909192939192939050505061248d565b005b3480156115f957600080fd5b506116916004803603604081101561161057600080fd5b810190808035906020019064010000000081111561162d57600080fd5b82018360208201111561163f57600080fd5b8035906020019184600183028401116401000000008311171561166157600080fd5b9091929391929390803573ffffffffffffffffffffffffffffffffffffffff169060200190929190505050612525565b005b34801561169f57600080fd5b50611717600480360360208110156116b657600080fd5b81019080803590602001906401000000008111156116d357600080fd5b8201836020820111156116e557600080fd5b8035906020019184600183028401116401000000008311171561170757600080fd5b9091929391929390505050612580565b005b34801561172557600080fd5b506117a76004803603604081101561173c57600080fd5b810190808035906020019064010000000081111561175957600080fd5b82018360208201111561176b57600080fd5b8035906020019184600183028401116401000000008311171561178d57600080fd5b9091929391929390803590602001909291905050506125d1565b005b3480156117b557600080fd5b506117be61262c565b005b3480156117cc57600080fd5b506117d5612f8f565b005b3480156117e357600080fd5b5061185b600480360360208110156117fa57600080fd5b810190808035906020019064010000000081111561181757600080fd5b82018360208201111561182957600080fd5b8035906020019184600183028401116401000000008311171561184b57600080fd5b9091929391929390505050612fdc565b005b34801561186957600080fd5b506118726130c1565b60405180827bffffffffffffffffffffffffffffffffffffffffffffffffffffffff19167bffffffffffffffffffffffffffffffffffffffffffffffffffffffff1916815260200191505060405180910390f35b3480156118d257600080fd5b50611954600480360360408110156118e957600080fd5b810190808035906020019064010000000081111561190657600080fd5b82018360208201111561191857600080fd5b8035906020019184600183028401116401000000008311171561193a57600080fd5b9091929391929390803590602001909291905050506130e5565b005b5b6001156119795760006060600060c060008060066107d05a03f1905050611957565b565b6000600d54905090565b600260018383604051808383808284378083019250505092505050908152602001604051809103902060006101000a81548160ff021916908360028111156119c957fe5b0217905550611a1b82828080601f016020809104026020016040519081016040528093929190818152602001838380828437600081840152601f19601f82011690508083019250505050505050613140565b5050565b6040805190810160405280600481526020017f30786666000000000000000000000000000000000000000000000000000000008152506040518082805190602001908083835b602083101515611a8a5780518252602082019150602081019050602083039250611a65565b6001836020036101000a038019825116818451168082178552505050505050905001915050604051809103902081565b600081611ac8576000611acb565b60015b60ff169050611ae1611adc8261322b565b61326f565b5050565b6002600a60006101000a81548160ff02191690836002811115611b0457fe5b0217905550565b600080611b5b84848080601f016020809104026020016040519081016040528093929190818152602001838380828437600081840152601f19601f820116905080830192505050505050506132ad565b905060096000600e548360405160200180838152602001827bffffffffffffffffffffffffffffffffffffffffffffffffffffffff19167bffffffffffffffffffffffffffffffffffffffffffffffffffffffff19168152600401925050506040516020818303038152906040528051906020012081526020019081526020016000205491505092915050565b600060046000600e5485856040516020018084815260200183838082843780830192505050935050505060405160208183030381529060405280519060200120815260200190815260200160002054905092915050565b3073ffffffffffffffffffffffffffffffffffffffff163373ffffffffffffffffffffffffffffffffffffffff16141515611d08576040517f08c379a000000000000000000000000000000000000000000000000000000000815260040180806020018281038252602b8152602001807f43616e206f6e6c792062652063616c6c65642066726f6d2074686520636f6e7481526020017f7261637420697473656c6600000000000000000000000000000000000000000081525060400191505060405180910390fd5b6001600d60008282540192505081905550600160096000600e548560405160200180838152602001827bffffffffffffffffffffffffffffffffffffffffffffffffffffffff19167bffffffffffffffffffffffffffffffffffffffffffffffffffffffff191681526004019250505060405160208183030381529060405280519060200120815260200190815260200160002060008282540192505081905550600160046000600e54846040516020018083815260200182805190602001908083835b602083101515611df15780518252602082019150602081019050602083039250611dcc565b6001836020036101000a03801982511681845116808217855250505050505090500192505050604051602081830303815290604052805190602001208152602001908152602001600020600082825401925050819055505050565b600081611e5a576000611e5d565b60015b60ff169050611eb884848080601f016020809104026020016040519081016040528093929190818152602001838380828437600081840152601f19601f82011690508083019250505050505050611eb38361322b565b6133a7565b50505050565b611f5084848080601f016020809104026020016040519081016040528093929190818152602001838380828437600081840152601f19601f8201169050808301925050505050505083838080601f016020809104026020016040519081016040528093929190818152602001838380828437600081840152601f19601f820116905080830192505050505050506133a7565b50505050565b7f010000000000000000000000000000000000000000000000000000000000000081565b611f8b611f86826134c1565b61326f565b50565b6000611fdd83838080601f016020809104026020016040519081016040528093929190818152602001838380828437600081840152601f19601f820116905080830192505050505050506132ad565b9050600260066000837bffffffffffffffffffffffffffffffffffffffffffffffffffffffff19167bffffffffffffffffffffffffffffffffffffffffffffffffffffffff1916815260200190815260200160002060006101000a81548160ff0219169083600281111561204d57fe5b021790555061205b816134f3565b505050565b60008161206e576000612071565b60015b60ff1690506120cc84848080601f016020809104026020016040519081016040528093929190818152602001838380828437600081840152601f19601f820116905080830192505050505050506120c78361322b565b613786565b50505050565b6040805190810160405280600481526020017f307866660000000000000000000000000000000000000000000000000000000081525081565b6001600a60006101000a81548160ff0219169083600281111561212a57fe5b02179055508181600c919061214092919061387a565b505050565b600061219485858080601f016020809104026020016040519081016040528093929190818152602001838380828437600081840152601f19601f820116905080830192505050505050506132ad565b9050600160066000837bffffffffffffffffffffffffffffffffffffffffffffffffffffffff19167bffffffffffffffffffffffffffffffffffffffffffffffffffffffff1916815260200190815260200160002060006101000a81548160ff0219169083600281111561220457fe5b0217905550828260086000847bffffffffffffffffffffffffffffffffffffffffffffffffffffffff19167bffffffffffffffffffffffffffffffffffffffffffffffffffffffff19168152602001908152602001600020919061226992919061387a565b50612273816134f3565b5050505050565b6001808585604051808383808284378083019250505092505050908152602001604051809103902060006101000a81548160ff021916908360028111156122bd57fe5b0217905550818160038686604051808383808284378083019250505092505050908152602001604051809103902091906122f892919061387a565b5061234684848080601f016020809104026020016040519081016040528093929190818152602001838380828437600081840152601f19601f82011690508083019250505050505050613140565b50505050565b600061239b83838080601f016020809104026020016040519081016040528093929190818152602001838380828437600081840152601f19601f820116905080830192505050505050506132ad565b9050600160066000837bffffffffffffffffffffffffffffffffffffffffffffffffffffffff19167bffffffffffffffffffffffffffffffffffffffffffffffffffffffff1916815260200190815260200160002060006101000a81548160ff0219169083600281111561240b57fe5b0217905550612419816134f3565b505050565b61242f61242a8261322b565b61326f565b50565b61248883838080601f016020809104026020016040519081016040528093929190818152602001838380828437600081840152601f19601f82011690508083019250505050505050612483836134c1565b6133a7565b505050565b61251f84848080601f016020809104026020016040519081016040528093929190818152602001838380828437600081840152601f19601f8201169050808301925050505050505083838080601f016020809104026020016040519081016040528093929190818152602001838380828437600081840152601f19601f82011690508083019250505050505050613786565b50505050565b61257b83838080601f016020809104026020016040519081016040528093929190818152602001838380828437600081840152601f19601f82011690508083019250505050505050612576836134c1565b613786565b505050565b6125cd82828080601f016020809104026020016040519081016040528093929190818152602001838380828437600081840152601f19601f8201169050808301925050505050505061326f565b5050565b61262783838080601f016020809104026020016040519081016040528093929190818152602001838380828437600081840152601f19601f820116905080830192505050505050506126228361322b565b6133a7565b505050565b60606000807f010000000000000000000000000000000000000000000000000000000000000081526020019081526020016000208054600181600116156101000203166002900480601f0160208091040260200160405190810160405280929190818152602001828054600181600116156101000203166002900480156126f45780601f106126c9576101008083540402835291602001916126f4565b820191906000526020600020905b8154815290600101906020018083116126d757829003601f168201915b505050505090506000818051906020012090505b6040805190810160405280600481526020017f30786666000000000000000000000000000000000000000000000000000000008152506040518082805190602001908083835b602083101515612773578051825260208201915060208101905060208303925061274e565b6001836020036101000a038019825116818451168082178552505050505050905001915050604051809103902081141515612a485760006001836040518082805190602001908083835b6020831015156127e257805182526020820191506020810190506020830392506127bd565b6001836020036101000a038019825116818451168082178552505050505050905001915050908152602001604051809103902060006101000a81548160ff0219169083600281111561283057fe5b021790555060206040519081016040528060008152506002836040518082805190602001908083835b60208310151561287e5780518252602082019150602081019050602083039250612859565b6001836020036101000a038019825116818451168082178552505050505050905001915050908152602001604051809103902090805190602001906128c49291906138fa565b5060206040519081016040528060008152506003836040518082805190602001908083835b60208310151561290e57805182526020820191506020810190506020830392506128e9565b6001836020036101000a0380198251168184511680821785525050505050509050019150509081526020016040518091039020908051906020019061295492919061397a565b506000808281526020019081526020016000208054600181600116156101000203166002900480601f0160208091040260200160405190810160405280929190818152602001828054600181600116156101000203166002900480156129fb5780601f106129d0576101008083540402835291602001916129fb565b820191906000526020600020905b8154815290600101906020018083116129de57829003601f168201915b5050505050915060206040519081016040528060008152506000808381526020019081526020016000209080519060200190612a389291906138fa565b5081805190602001209050612708565b6040805190810160405280600481526020017f30786666000000000000000000000000000000000000000000000000000000008152506000807f010000000000000000000000000000000000000000000000000000000000000081526020019081526020016000209080519060200190612ac39291906139fa565b506000600560007f01000000000000000000000000000000000000000000000000000000000000007bffffffffffffffffffffffffffffffffffffffffffffffffffffffff19167bffffffffffffffffffffffffffffffffffffffffffffffffffffffff1916815260200190815260200160002060009054906101000a90047c01000000000000000000000000000000000000000000000000000000000290505b7f01000000000000000000000000000000000000000000000000000000000000007bffffffffffffffffffffffffffffffffffffffffffffffffffffffff1916817bffffffffffffffffffffffffffffffffffffffffffffffffffffffff1916141515612e5c576000819050600060066000837bffffffffffffffffffffffffffffffffffffffffffffffffffffffff19167bffffffffffffffffffffffffffffffffffffffffffffffffffffffff1916815260200190815260200160002060006101000a81548160ff02191690836002811115612c3e57fe5b0217905550602060405190810160405280600081525060076000837bffffffffffffffffffffffffffffffffffffffffffffffffffffffff19167bffffffffffffffffffffffffffffffffffffffffffffffffffffffff191681526020019081526020016000209080519060200190612cb89291906138fa565b50602060405190810160405280600081525060086000837bffffffffffffffffffffffffffffffffffffffffffffffffffffffff19167bffffffffffffffffffffffffffffffffffffffffffffffffffffffff191681526020019081526020016000209080519060200190612d2e92919061397a565b5060056000827bffffffffffffffffffffffffffffffffffffffffffffffffffffffff19167bffffffffffffffffffffffffffffffffffffffffffffffffffffffff1916815260200190815260200160002060009054906101000a90047c010000000000000000000000000000000000000000000000000000000002915060007c01000000000000000000000000000000000000000000000000000000000260056000837bffffffffffffffffffffffffffffffffffffffffffffffffffffffff19167bffffffffffffffffffffffffffffffffffffffffffffffffffffffff1916815260200190815260200160002060006101000a81548163ffffffff02191690837c01000000000000000000000000000000000000000000000000000000009004021790555050612b64565b7f0100000000000000000000000000000000000000000000000000000000000000600560007f01000000000000000000000000000000000000000000000000000000000000007bffffffffffffffffffffffffffffffffffffffffffffffffffffffff19167bffffffffffffffffffffffffffffffffffffffffffffffffffffffff1916815260200190815260200160002060006101000a81548163ffffffff02191690837c0100000000000000000000000000000000000000000000000000000000900402179055506020604051908101604052806000815250600b9080519060200190612f4c9291906138fa565b506000600a60006101000a81548160ff02191690836002811115612f6c57fe5b02179055506000600d819055506001600e60008282540192505081905550505050565b6001600a60006101000a81548160ff02191690836002811115612fae57fe5b02179055506020604051908101604052806000815250600c9080519060200190612fd992919061397a565b50565b6001808383604051808383808284378083019250505092505050908152602001604051809103902060006101000a81548160ff0219169083600281111561301f57fe5b02179055506020604051908101604052806000815250600383836040518083838082843780830192505050925050509081526020016040518091039020908051906020019061306f92919061397a565b506130bd82828080601f016020809104026020016040519081016040528093929190818152602001838380828437600081840152601f19601f82011690508083019250505050505050613140565b5050565b7f010000000000000000000000000000000000000000000000000000000000000081565b61313b83838080601f016020809104026020016040519081016040528093929190818152602001838380828437600081840152601f19601f820116905080830192505050505050506131368361322b565b613786565b505050565b60008180519060200120905060008060008381526020019081526020016000208054600181600116156101000203166002900490501415613227576000807f0100000000000000000000000000000000000000000000000000000000000000815260200190815260200160002060008083815260200190815260200160002090805460018160011615610100020316600290046131de929190613a7a565b50816000807f0100000000000000000000000000000000000000000000000000000000000000815260200190815260200160002090805190602001906132259291906139fa565b505b5050565b606060206040519080825280601f01601f1916602001820160405280156132615781602001600182028038833980820191505090505b509050816020820152919050565b6000600a60006101000a81548160ff0219169083600281111561328e57fe5b021790555080600b90805190602001906132a99291906139fa565b5050565b60008060008090505b600481101561339d576008810260ff7f01000000000000000000000000000000000000000000000000000000000000000285838151811015156132f557fe5b9060200101517f010000000000000000000000000000000000000000000000000000000000000090047f010000000000000000000000000000000000000000000000000000000000000002167effffffffffffffffffffffffffffffffffffffffffffffffffffffffffffff19167bffffffffffffffffffffffffffffffffffffffffffffffffffffffff1916908060020a82049150508217915080806001019150506132b6565b5080915050919050565b60006001836040518082805190602001908083835b6020831015156133e157805182526020820191506020810190506020830392506133bc565b6001836020036101000a038019825116818451168082178552505050505050905001915050908152602001604051809103902060006101000a81548160ff0219169083600281111561342f57fe5b0217905550806002836040518082805190602001908083835b60208310151561346d5780518252602082019150602081019050602083039250613448565b6001836020036101000a038019825116818451168082178552505050505050905001915050908152602001604051809103902090805190602001906134b39291906139fa565b506134bd82613140565b5050565b606060405182741400000000000000000000000000000000000000001860148201526034810160405280915050919050565b60007c01000000000000000000000000000000000000000000000000000000000260056000837bffffffffffffffffffffffffffffffffffffffffffffffffffffffff19167bffffffffffffffffffffffffffffffffffffffffffffffffffffffff1916815260200190815260200160002060009054906101000a90047c0100000000000000000000000000000000000000000000000000000000027bffffffffffffffffffffffffffffffffffffffffffffffffffffffff1916141561378357600560007f01000000000000000000000000000000000000000000000000000000000000007bffffffffffffffffffffffffffffffffffffffffffffffffffffffff19167bffffffffffffffffffffffffffffffffffffffffffffffffffffffff1916815260200190815260200160002060009054906101000a90047c01000000000000000000000000000000000000000000000000000000000260056000837bffffffffffffffffffffffffffffffffffffffffffffffffffffffff19167bffffffffffffffffffffffffffffffffffffffffffffffffffffffff1916815260200190815260200160002060006101000a81548163ffffffff02191690837c01000000000000000000000000000000000000000000000000000000009004021790555080600560007f01000000000000000000000000000000000000000000000000000000000000007bffffffffffffffffffffffffffffffffffffffffffffffffffffffff19167bffffffffffffffffffffffffffffffffffffffffffffffffffffffff1916815260200190815260200160002060006101000a81548163ffffffff02191690837c0100000000000000000000000000000000000000000000000000000000900402179055505b50565b6000613791836132ad565b9050600060066000837bffffffffffffffffffffffffffffffffffffffffffffffffffffffff19167bffffffffffffffffffffffffffffffffffffffffffffffffffffffff1916815260200190815260200160002060006101000a81548160ff0219169083600281111561380157fe5b02179055508160076000837bffffffffffffffffffffffffffffffffffffffffffffffffffffffff19167bffffffffffffffffffffffffffffffffffffffffffffffffffffffff19168152602001908152602001600020908051906020019061386b9291906139fa565b50613875816134f3565b505050565b828054600181600116156101000203166002900490600052602060002090601f016020900481019282601f106138bb57803560ff19168380011785556138e9565b828001600101855582156138e9579182015b828111156138e85782358255916020019190600101906138cd565b5b5090506138f69190613b01565b5090565b828054600181600116156101000203166002900490600052602060002090601f016020900481019282601f1061393b57805160ff1916838001178555613969565b82800160010185558215613969579182015b8281111561396857825182559160200191906001019061394d565b5b5090506139769190613b01565b5090565b828054600181600116156101000203166002900490600052602060002090601f016020900481019282601f106139bb57805160ff19168380011785556139e9565b828001600101855582156139e9579182015b828111156139e85782518255916020019190600101906139cd565b5b5090506139f69190613b01565b5090565b828054600181600116156101000203166002900490600052602060002090601f016020900481019282601f10613a3b57805160ff1916838001178555613a69565b82800160010185558215613a69579182015b82811115613a68578251825591602001919060010190613a4d565b5b509050613a769190613b01565b5090565b828054600181600116156101000203166002900490600052602060002090601f016020900481019282601f10613ab35780548555613af0565b82800160010185558215613af057600052602060002091601f016020900482015b82811115613aef578254825591600101919060010190613ad4565b5b509050613afd9190613b01565b5090565b613b2391905b80821115613b1f576000816000905550600101613b07565b5090565b9056fea165627a7a723058201da4edcdc3adf4bb53790862ec03f7331b4a0c05d95bf5381ff528254afae7b90029",
  "source": "pragma solidity ^0.5.0;\n\ninterface MockInterface {\n\t/**\n\t * @dev After calling this method, the mock will return `response` when it is called\n\t * with any calldata that is not mocked more specifically below\n\t * (e.g. using givenMethodReturn).\n\t * @param response ABI encoded response that will be returned if method is invoked\n\t */\n\tfunction givenAnyReturn(bytes calldata response) external;\n\tfunction givenAnyReturnBool(bool response) external;\n\tfunction givenAnyReturnUint(uint response) external;\n\tfunction givenAnyReturnAddress(address response) external;\n\n\tfunction givenAnyRevert() external;\n\tfunction givenAnyRevertWithMessage(string calldata message) external;\n\tfunction givenAnyRunOutOfGas() external;\n\n\t/**\n\t * @dev After calling this method, the mock will return `response` when the given\n\t * methodId is called regardless of arguments. If the methodId and arguments\n\t * are mocked more specifically (using `givenMethodAndArguments`) the latter\n\t * will take precedence.\n\t * @param method ABI encoded methodId. It is valid to pass full calldata (including arguments). The mock will extract the methodId from it\n\t * @param response ABI encoded response that will be returned if method is invoked\n\t */\n\tfunction givenMethodReturn(bytes calldata method, bytes calldata response) external;\n\tfunction givenMethodReturnBool(bytes calldata method, bool response) external;\n\tfunction givenMethodReturnUint(bytes calldata method, uint response) external;\n\tfunction givenMethodReturnAddress(bytes calldata method, address response) external;\n\n\tfunction givenMethodRevert(bytes calldata method) external;\n\tfunction givenMethodRevertWithMessage(bytes calldata method, string calldata message) external;\n\tfunction givenMethodRunOutOfGas(bytes calldata method) external;\n\n\t/**\n\t * @dev After calling this method, the mock will return `response` when the given\n\t * methodId is called with matching arguments. These exact calldataMocks will take\n\t * precedence over all other calldataMocks.\n\t * @param call ABI encoded calldata (methodId and arguments)\n\t * @param response ABI encoded response that will be returned if contract is invoked with calldata\n\t */\n\tfunction givenCalldataReturn(bytes calldata call, bytes calldata response) external;\n\tfunction givenCalldataReturnBool(bytes calldata call, bool response) external;\n\tfunction givenCalldataReturnUint(bytes calldata call, uint response) external;\n\tfunction givenCalldataReturnAddress(bytes calldata call, address response) external;\n\n\tfunction givenCalldataRevert(bytes calldata call) external;\n\tfunction givenCalldataRevertWithMessage(bytes calldata call, string calldata message) external;\n\tfunction givenCalldataRunOutOfGas(bytes calldata call) external;\n\n\t/**\n\t * @dev Returns the number of times anything has been called on this mock since last reset\n\t */\n\tfunction invocationCount() external returns (uint);\n\n\t/**\n\t * @dev Returns the number of times the given method has been called on this mock since last reset\n\t * @param method ABI encoded methodId. It is valid to pass full calldata (including arguments). The mock will extract the methodId from it\n\t */\n\tfunction invocationCountForMethod(bytes calldata method) external returns (uint);\n\n\t/**\n\t * @dev Returns the number of times this mock has been called with the exact calldata since last reset.\n\t * @param call ABI encoded calldata (methodId and arguments)\n\t */\n\tfunction invocationCountForCalldata(bytes calldata call) external returns (uint);\n\n\t/**\n\t * @dev Resets all mocked methods and invocation counts.\n\t */\n\t function reset() external;\n}\n\n/**\n * Implementation of the MockInterface.\n */\ncontract MockContract is MockInterface {\n\tenum MockType { Return, Revert, OutOfGas }\n\t\n\tbytes32 public constant MOCKS_LIST_START = hex\"01\";\n\tbytes public constant MOCKS_LIST_END = \"0xff\";\n\tbytes32 public constant MOCKS_LIST_END_HASH = keccak256(MOCKS_LIST_END);\n\tbytes4 public constant SENTINEL_ANY_MOCKS = hex\"01\";\n\n\t// A linked list allows easy iteration and inclusion checks\n\tmapping(bytes32 => bytes) calldataMocks;\n\tmapping(bytes => MockType) calldataMockTypes;\n\tmapping(bytes => bytes) calldataExpectations;\n\tmapping(bytes => string) calldataRevertMessage;\n\tmapping(bytes32 => uint) calldataInvocations;\n\n\tmapping(bytes4 => bytes4) methodIdMocks;\n\tmapping(bytes4 => MockType) methodIdMockTypes;\n\tmapping(bytes4 => bytes) methodIdExpectations;\n\tmapping(bytes4 => string) methodIdRevertMessages;\n\tmapping(bytes32 => uint) methodIdInvocations;\n\n\tMockType fallbackMockType;\n\tbytes fallbackExpectation;\n\tstring fallbackRevertMessage;\n\tuint invocations;\n\tuint resetCount;\n\n\tconstructor() public {\n\t\tcalldataMocks[MOCKS_LIST_START] = MOCKS_LIST_END;\n\t\tmethodIdMocks[SENTINEL_ANY_MOCKS] = SENTINEL_ANY_MOCKS;\n\t}\n\n\tfunction trackCalldataMock(bytes memory call) private {\n\t\tbytes32 callHash = keccak256(call);\n\t\tif (calldataMocks[callHash].length == 0) {\n\t\t\tcalldataMocks[callHash] = calldataMocks[MOCKS_LIST_START];\n\t\t\tcalldataMocks[MOCKS_LIST_START] = call;\n\t\t}\n\t}\n\n\tfunction trackMethodIdMock(bytes4 methodId) private {\n\t\tif (methodIdMocks[methodId] == 0x0) {\n\t\t\tmethodIdMocks[methodId] = methodIdMocks[SENTINEL_ANY_MOCKS];\n\t\t\tmethodIdMocks[SENTINEL_ANY_MOCKS] = methodId;\n\t\t}\n\t}\n\n\tfunction _givenAnyReturn(bytes memory response) internal {\n\t\tfallbackMockType = MockType.Return;\n\t\tfallbackExpectation = response;\n\t}\n\n\tfunction givenAnyReturn(bytes calldata response) external {\n\t\t_givenAnyReturn(response);\n\t}\n\n\tfunction givenAnyReturnBool(bool response) external {\n\t\tuint flag = response ? 1 : 0;\n\t\t_givenAnyReturn(uintToBytes(flag));\n\t}\n\n\tfunction givenAnyReturnUint(uint response) external {\n\t\t_givenAnyReturn(uintToBytes(response));\t\n\t}\n\n\tfunction givenAnyReturnAddress(address response) external {\n\t\t_givenAnyReturn(addressToBytes(response));\n\t}\n\n\tfunction givenAnyRevert() external {\n\t\tfallbackMockType = MockType.Revert;\n\t\tfallbackRevertMessage = \"\";\n\t}\n\n\tfunction givenAnyRevertWithMessage(string calldata message) external {\n\t\tfallbackMockType = MockType.Revert;\n\t\tfallbackRevertMessage = message;\n\t}\n\n\tfunction givenAnyRunOutOfGas() external {\n\t\tfallbackMockType = MockType.OutOfGas;\n\t}\n\n\tfunction _givenCalldataReturn(bytes memory call, bytes memory response) private  {\n\t\tcalldataMockTypes[call] = MockType.Return;\n\t\tcalldataExpectations[call] = response;\n\t\ttrackCalldataMock(call);\n\t}\n\n\tfunction givenCalldataReturn(bytes calldata call, bytes calldata response) external  {\n\t\t_givenCalldataReturn(call, response);\n\t}\n\n\tfunction givenCalldataReturnBool(bytes calldata call, bool response) external {\n\t\tuint flag = response ? 1 : 0;\n\t\t_givenCalldataReturn(call, uintToBytes(flag));\n\t}\n\n\tfunction givenCalldataReturnUint(bytes calldata call, uint response) external {\n\t\t_givenCalldataReturn(call, uintToBytes(response));\n\t}\n\n\tfunction givenCalldataReturnAddress(bytes calldata call, address response) external {\n\t\t_givenCalldataReturn(call, addressToBytes(response));\n\t}\n\n\tfunction _givenMethodReturn(bytes memory call, bytes memory response) private {\n\t\tbytes4 method = bytesToBytes4(call);\n\t\tmethodIdMockTypes[method] = MockType.Return;\n\t\tmethodIdExpectations[method] = response;\n\t\ttrackMethodIdMock(method);\t\t\n\t}\n\n\tfunction givenMethodReturn(bytes calldata call, bytes calldata response) external {\n\t\t_givenMethodReturn(call, response);\n\t}\n\n\tfunction givenMethodReturnBool(bytes calldata call, bool response) external {\n\t\tuint flag = response ? 1 : 0;\n\t\t_givenMethodReturn(call, uintToBytes(flag));\n\t}\n\n\tfunction givenMethodReturnUint(bytes calldata call, uint response) external {\n\t\t_givenMethodReturn(call, uintToBytes(response));\n\t}\n\n\tfunction givenMethodReturnAddress(bytes calldata call, address response) external {\n\t\t_givenMethodReturn(call, addressToBytes(response));\n\t}\n\n\tfunction givenCalldataRevert(bytes calldata call) external {\n\t\tcalldataMockTypes[call] = MockType.Revert;\n\t\tcalldataRevertMessage[call] = \"\";\n\t\ttrackCalldataMock(call);\n\t}\n\n\tfunction givenMethodRevert(bytes calldata call) external {\n\t\tbytes4 method = bytesToBytes4(call);\n\t\tmethodIdMockTypes[method] = MockType.Revert;\n\t\ttrackMethodIdMock(method);\t\t\n\t}\n\n\tfunction givenCalldataRevertWithMessage(bytes calldata call, string calldata message) external {\n\t\tcalldataMockTypes[call] = MockType.Revert;\n\t\tcalldataRevertMessage[call] = message;\n\t\ttrackCalldataMock(call);\n\t}\n\n\tfunction givenMethodRevertWithMessage(bytes calldata call, string calldata message) external {\n\t\tbytes4 method = bytesToBytes4(call);\n\t\tmethodIdMockTypes[method] = MockType.Revert;\n\t\tmethodIdRevertMessages[method] = message;\n\t\ttrackMethodIdMock(method);\t\t\n\t}\n\n\tfunction givenCalldataRunOutOfGas(bytes calldata call) external {\n\t\tcalldataMockTypes[call] = MockType.OutOfGas;\n\t\ttrackCalldataMock(call);\n\t}\n\n\tfunction givenMethodRunOutOfGas(bytes calldata call) external {\n\t\tbytes4 method = bytesToBytes4(call);\n\t\tmethodIdMockTypes[method] = MockType.OutOfGas;\n\t\ttrackMethodIdMock(method);\t\n\t}\n\n\tfunction invocationCount() external returns (uint) {\n\t\treturn invocations;\n\t}\n\n\tfunction invocationCountForMethod(bytes calldata call) external returns (uint) {\n\t\tbytes4 method = bytesToBytes4(call);\n\t\treturn methodIdInvocations[keccak256(abi.encodePacked(resetCount, method))];\n\t}\n\n\tfunction invocationCountForCalldata(bytes calldata call) external returns (uint) {\n\t\treturn calldataInvocations[keccak256(abi.encodePacked(resetCount, call))];\n\t}\n\n\tfunction reset() external {\n\t\t// Reset all exact calldataMocks\n\t\tbytes memory nextMock = calldataMocks[MOCKS_LIST_START];\n\t\tbytes32 mockHash = keccak256(nextMock);\n\t\t// We cannot compary bytes\n\t\twhile(mockHash != MOCKS_LIST_END_HASH) {\n\t\t\t// Reset all mock maps\n\t\t\tcalldataMockTypes[nextMock] = MockType.Return;\n\t\t\tcalldataExpectations[nextMock] = hex\"\";\n\t\t\tcalldataRevertMessage[nextMock] = \"\";\n\t\t\t// Set next mock to remove\n\t\t\tnextMock = calldataMocks[mockHash];\n\t\t\t// Remove from linked list\n\t\t\tcalldataMocks[mockHash] = \"\";\n\t\t\t// Update mock hash\n\t\t\tmockHash = keccak256(nextMock);\n\t\t}\n\t\t// Clear list\n\t\tcalldataMocks[MOCKS_LIST_START] = MOCKS_LIST_END;\n\n\t\t// Reset all any calldataMocks\n\t\tbytes4 nextAnyMock = methodIdMocks[SENTINEL_ANY_MOCKS];\n\t\twhile(nextAnyMock != SENTINEL_ANY_MOCKS) {\n\t\t\tbytes4 currentAnyMock = nextAnyMock;\n\t\t\tmethodIdMockTypes[currentAnyMock] = MockType.Return;\n\t\t\tmethodIdExpectations[currentAnyMock] = hex\"\";\n\t\t\tmethodIdRevertMessages[currentAnyMock] = \"\";\n\t\t\tnextAnyMock = methodIdMocks[currentAnyMock];\n\t\t\t// Remove from linked list\n\t\t\tmethodIdMocks[currentAnyMock] = 0x0;\n\t\t}\n\t\t// Clear list\n\t\tmethodIdMocks[SENTINEL_ANY_MOCKS] = SENTINEL_ANY_MOCKS;\n\n\t\tfallbackExpectation = \"\";\n\t\tfallbackMockType = MockType.Return;\n\t\tinvocations = 0;\n\t\tresetCount += 1;\n\t}\n\n\tfunction useAllGas() private {\n\t\twhile(true) {\n\t\t\tbool s;\n\t\t\tassembly {\n\t\t\t\t//expensive call to EC multiply contract\n\t\t\t\ts := call(sub(gas, 2000), 6, 0, 0x0, 0xc0, 0x0, 0x60)\n\t\t\t}\n\t\t}\n\t}\n\n\tfunction bytesToBytes4(bytes memory b) private pure returns (bytes4) {\n\t\tbytes4 out;\n\t\tfor (uint i = 0; i < 4; i++) {\n\t\t\tout |= bytes4(b[i] & 0xFF) >> (i * 8);\n\t\t}\n\t\treturn out;\n\t}\n\n\tfunction addressToBytes(address a) private pure returns (bytes memory b){\n\t\tassembly {\n\t\t\tlet m := mload(0x40)\n\t\t\tmstore(add(m, 20), xor(0x140000000000000000000000000000000000000000, a))\n\t\t\tmstore(0x40, add(m, 52))\n\t\t\tb := m\n\t\t}\n\t}\n\n\tfunction uintToBytes(uint256 x) private pure returns (bytes memory b) {\n\t\tb = new bytes(32);\n\t\tassembly { mstore(add(b, 32), x) }\n\t}\n\n\tfunction updateInvocationCount(bytes4 methodId, bytes memory originalMsgData) public {\n\t\trequire(msg.sender == address(this), \"Can only be called from the contract itself\");\n\t\tinvocations += 1;\n\t\tmethodIdInvocations[keccak256(abi.encodePacked(resetCount, methodId))] += 1;\n\t\tcalldataInvocations[keccak256(abi.encodePacked(resetCount, originalMsgData))] += 1;\n\t}\n\n\tfunction() payable external {\n\t\tbytes4 methodId;\n\t\tassembly {\n\t\t\tmethodId := calldataload(0)\n\t\t}\n\n\t\t// First, check exact matching overrides\n\t\tif (calldataMockTypes[msg.data] == MockType.Revert) {\n\t\t\trevert(calldataRevertMessage[msg.data]);\n\t\t}\n\t\tif (calldataMockTypes[msg.data] == MockType.OutOfGas) {\n\t\t\tuseAllGas();\n\t\t}\n\t\tbytes memory result = calldataExpectations[msg.data];\n\n\t\t// Then check method Id overrides\n\t\tif (result.length == 0) {\n\t\t\tif (methodIdMockTypes[methodId] == MockType.Revert) {\n\t\t\t\trevert(methodIdRevertMessages[methodId]);\n\t\t\t}\n\t\t\tif (methodIdMockTypes[methodId] == MockType.OutOfGas) {\n\t\t\t\tuseAllGas();\n\t\t\t}\n\t\t\tresult = methodIdExpectations[methodId];\n\t\t}\n\n\t\t// Last, use the fallback override\n\t\tif (result.length == 0) {\n\t\t\tif (fallbackMockType == MockType.Revert) {\n\t\t\t\trevert(fallbackRevertMessage);\n\t\t\t}\n\t\t\tif (fallbackMockType == MockType.OutOfGas) {\n\t\t\t\tuseAllGas();\n\t\t\t}\n\t\t\tresult = fallbackExpectation;\n\t\t}\n\n\t\t// Record invocation as separate call so we don't rollback in case we are called with STATICCALL\n\t\t(, bytes memory r) = address(this).call.gas(100000)(abi.encodeWithSignature(\"updateInvocationCount(bytes4,bytes)\", methodId, msg.data));\n\t\tassert(r.length == 0);\n\t\t\n\t\tassembly {\n\t\t\treturn(add(0x20, result), mload(result))\n\t\t}\n\t}\n}\n",
  "sourcePath": "@gnosis.pm/mock-contract/contracts/MockContract.sol",
  "compiler": {
    "name": "solc",
    "version": "0.5.0+commit.1d4f565a.Emscripten.clang"
  },
  "schemaVersion": "3.0.1",
  "updatedAt": "2019-01-25T22:22:23.860Z",
  "devdoc": {
    "methods": {}
  },
  "userdoc": {
    "methods": {},
    "notice": "Implementation of the MockInterface."
  }
}