{
  "contractName": "MultiSend",
  "abi": [
    {
      "constant": false,
      "inputs": [
        {
          "name": "transactions",
          "type": "bytes"
        }
      ],
      "name": "multiSend",
      "outputs": [],
      "payable": false,
      "stateMutability": "nonpayable",
      "type": "function"
    }
  ],
  "bytecode": "0x608060405234801561001057600080fd5b506101c8806100206000396000f3fe608060405260043610610041576000357c0100000000000000000000000000000000000000000000000000000000900463ffffffff1680638d80ff0a14610046575b600080fd5b34801561005257600080fd5b5061010c6004803603602081101561006957600080fd5b810190808035906020019064010000000081111561008657600080fd5b82018360208201111561009857600080fd5b803590602001918460018302840111640100000000831117156100ba57600080fd5b91908080601f016020809104026020016040519081016040528093929190818152602001838380828437600081840152601f19601f82011690508083019250505050505050919291929050505061010e565b005b805160205b81811015610197578083015160208201840151604083018501516080840186015160a0850187016000856000811461015257600181146101625761016d565b6000808585888a5af1915061016d565b6000808585895af491505b50600081141561017c57600080fd5b602080601f8501040260a00187019650505050505050610113565b50505056fea165627a7a72305820899ad47701f09c542d5e8f7c80afe69a6bf433e76bec0ca26b99c276499f737e0029",
  "source": "pragma solidity ^0.5.0;\n\n\n/// @title Multi Send - Allows to batch multiple transactions into one.\n/// @author Nick Dodson - <nick.dodson@consensys.net>\n/// @author Gonçalo Sá - <goncalo.sa@consensys.net>\n/// @author Stefan George - <stefan@gnosis.pm>\ncontract MultiSend {\n\n    /// @dev Sends multiple transactions and reverts all if one fails.\n    /// @param transactions Encoded transactions. Each transaction is encoded as a \n    ///                     tuple(operation,address,uint256,bytes), where operation \n    ///                     can be 0 for a call or 1 for a delegatecall. The bytes \n    ///                     of all encoded transactions are concatenated to form the input.\n    function multiSend(bytes memory transactions)\n        public\n    {\n        // solium-disable-next-line security/no-inline-assembly\n        assembly {\n            let length := mload(transactions)\n            let i := 0x20\n            for { } lt(i, length) { } {\n                let operation := mload(add(transactions, i))\n                let to := mload(add(transactions, add(i, 0x20)))\n                let value := mload(add(transactions, add(i, 0x40)))\n                let dataLength := mload(add(transactions, add(i, 0x80)))\n                let data := add(transactions, add(i, 0xa0))\n                let success := 0\n                switch operation \n                case 0 { success := call(gas, to, value, data, dataLength, 0, 0) }\n                case 1 { success := delegatecall(gas, to, data, dataLength, 0, 0) }\n                if eq(success, 0) { revert(0, 0) }\n                i := add(i, add(0xa0, mul(div(add(dataLength, 0x1f), 0x20), 0x20)))\n            }\n        }\n    }\n}\n",
  "sourcePath": "/Users/antonvs/Projects/sandbox/gnosis-safe/contracts/safe-contracts/libraries/MultiSend.sol",
  "compiler": {
    "name": "solc",
    "version": "0.5.0+commit.1d4f565a.Emscripten.clang"
  },
  "schemaVersion": "3.0.1",
  "updatedAt": "2019-01-25T22:22:23.852Z",
  "devdoc": {
    "author": "Nick Dodson - <nick.dodson@consensys.net>Gonçalo Sá - <goncalo.sa@consensys.net>Stefan George - <stefan@gnosis.pm>",
    "methods": {
      "multiSend(bytes)": {
        "details": "Sends multiple transactions and reverts all if one fails.",
        "params": {
          "transactions": "Encoded transactions. Each transaction is encoded as a                      tuple(operation,address,uint256,bytes), where operation                      can be 0 for a call or 1 for a delegatecall. The bytes                      of all encoded transactions are concatenated to form the input."
        }
      }
    },
    "title": "Multi Send - Allows to batch multiple transactions into one."
  },
  "userdoc": {
    "methods": {}
  }
}