{
  "contractName": "SocialRecoveryModule",
  "abi": [
    {
      "constant": true,
      "inputs": [],
      "name": "threshold",
      "outputs": [
        {
          "name": "",
          "type": "uint256"
        }
      ],
      "payable": false,
      "stateMutability": "view",
      "type": "function"
    },
    {
      "constant": true,
      "inputs": [],
      "name": "manager",
      "outputs": [
        {
          "name": "",
          "type": "address"
        }
      ],
      "payable": false,
      "stateMutability": "view",
      "type": "function"
    },
    {
      "constant": true,
      "inputs": [
        {
          "name": "",
          "type": "address"
        }
      ],
      "name": "isFriend",
      "outputs": [
        {
          "name": "",
          "type": "bool"
        }
      ],
      "payable": false,
      "stateMutability": "view",
      "type": "function"
    },
    {
      "constant": false,
      "inputs": [
        {
          "name": "_masterCopy",
          "type": "address"
        }
      ],
      "name": "changeMasterCopy",
      "outputs": [],
      "payable": false,
      "stateMutability": "nonpayable",
      "type": "function"
    },
    {
      "constant": true,
      "inputs": [],
      "name": "NAME",
      "outputs": [
        {
          "name": "",
          "type": "string"
        }
      ],
      "payable": false,
      "stateMutability": "view",
      "type": "function"
    },
    {
      "constant": true,
      "inputs": [
        {
          "name": "",
          "type": "bytes32"
        },
        {
          "name": "",
          "type": "address"
        }
      ],
      "name": "isConfirmed",
      "outputs": [
        {
          "name": "",
          "type": "bool"
        }
      ],
      "payable": false,
      "stateMutability": "view",
      "type": "function"
    },
    {
      "constant": true,
      "inputs": [
        {
          "name": "",
          "type": "uint256"
        }
      ],
      "name": "friends",
      "outputs": [
        {
          "name": "",
          "type": "address"
        }
      ],
      "payable": false,
      "stateMutability": "view",
      "type": "function"
    },
    {
      "constant": true,
      "inputs": [
        {
          "name": "",
          "type": "bytes32"
        }
      ],
      "name": "isExecuted",
      "outputs": [
        {
          "name": "",
          "type": "bool"
        }
      ],
      "payable": false,
      "stateMutability": "view",
      "type": "function"
    },
    {
      "constant": true,
      "inputs": [],
      "name": "VERSION",
      "outputs": [
        {
          "name": "",
          "type": "string"
        }
      ],
      "payable": false,
      "stateMutability": "view",
      "type": "function"
    },
    {
      "constant": false,
      "inputs": [
        {
          "name": "_friends",
          "type": "address[]"
        },
        {
          "name": "_threshold",
          "type": "uint256"
        }
      ],
      "name": "setup",
      "outputs": [],
      "payable": false,
      "stateMutability": "nonpayable",
      "type": "function"
    },
    {
      "constant": false,
      "inputs": [
        {
          "name": "dataHash",
          "type": "bytes32"
        }
      ],
      "name": "confirmTransaction",
      "outputs": [],
      "payable": false,
      "stateMutability": "nonpayable",
      "type": "function"
    },
    {
      "constant": false,
      "inputs": [
        {
          "name": "prevOwner",
          "type": "address"
        },
        {
          "name": "oldOwner",
          "type": "address"
        },
        {
          "name": "newOwner",
          "type": "address"
        }
      ],
      "name": "recoverAccess",
      "outputs": [],
      "payable": false,
      "stateMutability": "nonpayable",
      "type": "function"
    },
    {
      "constant": true,
      "inputs": [
        {
          "name": "dataHash",
          "type": "bytes32"
        }
      ],
      "name": "isConfirmedByRequiredFriends",
      "outputs": [
        {
          "name": "",
          "type": "bool"
        }
      ],
      "payable": false,
      "stateMutability": "view",
      "type": "function"
    },
    {
      "constant": true,
      "inputs": [
        {
          "name": "data",
          "type": "bytes"
        }
      ],
      "name": "getDataHash",
      "outputs": [
        {
          "name": "",
          "type": "bytes32"
        }
      ],
      "payable": false,
      "stateMutability": "pure",
      "type": "function"
    }
  ],
  "bytecode": "0x608060405234801561001057600080fd5b50611867806100206000396000f3fe6080604052600436106100d0576000357c0100000000000000000000000000000000000000000000000000000000900463ffffffff16806342cde4e8146100d5578063481c6a75146101005780634ab884271461015757806368125a1b1461022657806377231eaa1461028f57806379716e43146103205780637de7edef1461035b5780639ca89d0d146103ac578063a3f4df7e146103ff578063ae68b0561461048f578063b79ffaff1461056b578063ce146828146105de578063e52cb36a14610659578063ffa1ad74146106ac575b600080fd5b3480156100e157600080fd5b506100ea61073c565b6040518082815260200191505060405180910390f35b34801561010c57600080fd5b50610115610742565b604051808273ffffffffffffffffffffffffffffffffffffffff1673ffffffffffffffffffffffffffffffffffffffff16815260200191505060405180910390f35b34801561016357600080fd5b506102246004803603604081101561017a57600080fd5b810190808035906020019064010000000081111561019757600080fd5b8201836020820111156101a957600080fd5b803590602001918460208302840111640100000000831117156101cb57600080fd5b919080806020026020016040519081016040528093929190818152602001838360200280828437600081840152601f19601f82011690508083019250505050505050919291929080359060200190929190505050610768565b005b34801561023257600080fd5b506102756004803603602081101561024957600080fd5b81019080803573ffffffffffffffffffffffffffffffffffffffff169060200190929190505050610ac9565b604051808215151515815260200191505060405180910390f35b34801561029b57600080fd5b5061031e600480360360608110156102b257600080fd5b81019080803573ffffffffffffffffffffffffffffffffffffffff169060200190929190803573ffffffffffffffffffffffffffffffffffffffff169060200190929190803573ffffffffffffffffffffffffffffffffffffffff169060200190929190505050610ae9565b005b34801561032c57600080fd5b506103596004803603602081101561034357600080fd5b810190808035906020019092919050505061108a565b005b34801561036757600080fd5b506103aa6004803603602081101561037e57600080fd5b81019080803573ffffffffffffffffffffffffffffffffffffffff169060200190929190505050611273565b005b3480156103b857600080fd5b506103e5600480360360208110156103cf57600080fd5b810190808035906020019092919050505061146c565b604051808215151515815260200191505060405180910390f35b34801561040b57600080fd5b50610414611555565b6040518080602001828103825283818151815260200191508051906020019080838360005b83811015610454578082015181840152602081019050610439565b50505050905090810190601f1680156104815780820380516001836020036101000a031916815260200191505b509250505060405180910390f35b34801561049b57600080fd5b50610555600480360360208110156104b257600080fd5b81019080803590602001906401000000008111156104cf57600080fd5b8201836020820111156104e157600080fd5b8035906020019184600183028401116401000000008311171561050357600080fd5b91908080601f016020809104026020016040519081016040528093929190818152602001838380828437600081840152601f19601f82011690508083019250505050505050919291929050505061158e565b6040518082815260200191505060405180910390f35b34801561057757600080fd5b506105c46004803603604081101561058e57600080fd5b8101908080359060200190929190803573ffffffffffffffffffffffffffffffffffffffff16906020019092919050505061159f565b604051808215151515815260200191505060405180910390f35b3480156105ea57600080fd5b506106176004803603602081101561060157600080fd5b81019080803590602001909291905050506115ce565b604051808273ffffffffffffffffffffffffffffffffffffffff1673ffffffffffffffffffffffffffffffffffffffff16815260200191505060405180910390f35b34801561066557600080fd5b506106926004803603602081101561067c57600080fd5b810190808035906020019092919050505061160c565b604051808215151515815260200191505060405180910390f35b3480156106b857600080fd5b506106c161162c565b6040518080602001828103825283818151815260200191508051906020019080838360005b838110156107015780820151818401526020810190506106e6565b50505050905090810190601f16801561072e5780820380516001836020036101000a031916815260200191505b509250505060405180910390f35b60025481565b600160009054906101000a900473ffffffffffffffffffffffffffffffffffffffff1681565b81518111151515610807576040517f08c379a00000000000000000000000000000000000000000000000000000000081526004018080602001828103825260258152602001807f5468726573686f6c642063616e6e6f742065786365656420667269656e64732081526020017f636f756e7400000000000000000000000000000000000000000000000000000081525060400191505060405180910390fd5b60028110151515610880576040517f08c379a000000000000000000000000000000000000000000000000000000000815260040180806020018281038252601b8152602001807f4174206c65617374203220667269656e6473207265717569726564000000000081525060200191505060405180910390fd5b610888611665565b60008090505b8251811015610aa657600083828151811015156108a757fe5b906020019060200201519050600073ffffffffffffffffffffffffffffffffffffffff168173ffffffffffffffffffffffffffffffffffffffff1614151515610958576040517f08c379a000000000000000000000000000000000000000000000000000000000815260040180806020018281038252601f8152602001807f496e76616c696420667269656e6420616464726573732070726f76696465640081525060200191505060405180910390fd5b600460008273ffffffffffffffffffffffffffffffffffffffff1673ffffffffffffffffffffffffffffffffffffffff16815260200190815260200160002060009054906101000a900460ff16151515610a40576040517f08c379a00000000000000000000000000000000000000000000000000000000081526004018080602001828103825260218152602001807f4475706c696361746520667269656e6420616464726573732070726f7669646581526020017f640000000000000000000000000000000000000000000000000000000000000081525060400191505060405180910390fd5b6001600460008373ffffffffffffffffffffffffffffffffffffffff1673ffffffffffffffffffffffffffffffffffffffff16815260200190815260200160002060006101000a81548160ff02191690831515021790555050808060010191505061088e565b508160039080519060200190610abd92919061176e565b50806002819055505050565b60046020528060005260406000206000915054906101000a900460ff1681565b600460003373ffffffffffffffffffffffffffffffffffffffff1673ffffffffffffffffffffffffffffffffffffffff16815260200190815260200160002060009054906101000a900460ff161515610bd0576040517f08c379a00000000000000000000000000000000000000000000000000000000081526004018080602001828103825260258152602001807f4d6574686f642063616e206f6e6c792062652063616c6c65642062792061206681526020017f7269656e6400000000000000000000000000000000000000000000000000000081525060400191505060405180910390fd5b6060838383604051602401808473ffffffffffffffffffffffffffffffffffffffff1673ffffffffffffffffffffffffffffffffffffffff1681526020018373ffffffffffffffffffffffffffffffffffffffff1673ffffffffffffffffffffffffffffffffffffffff1681526020018273ffffffffffffffffffffffffffffffffffffffff1673ffffffffffffffffffffffffffffffffffffffff16815260200193505050506040516020818303038152906040527fe318b52b000000000000000000000000000000000000000000000000000000007bffffffffffffffffffffffffffffffffffffffffffffffffffffffff19166020820180517bffffffffffffffffffffffffffffffffffffffffffffffffffffffff838183161783525050505090506000610d018261158e565b90506005600082815260200190815260200160002060009054906101000a900460ff16151515610d99576040517f08c379a00000000000000000000000000000000000000000000000000000000081526004018080602001828103825260198152602001807f5265636f7665727920616c72656164792065786563757465640000000000000081525060200191505060405180910390fd5b610da28161146c565b1515610e3c576040517f08c379a00000000000000000000000000000000000000000000000000000000081526004018080602001828103825260258152602001807f5265636f7665727920686173206e6f7420656e6f75676820636f6e6669726d6181526020017f74696f6e7300000000000000000000000000000000000000000000000000000081525060400191505060405180910390fd5b60016005600083815260200190815260200160002060006101000a81548160ff021916908315150217905550600160009054906101000a900473ffffffffffffffffffffffffffffffffffffffff1673ffffffffffffffffffffffffffffffffffffffff1663468721a7600160009054906101000a900473ffffffffffffffffffffffffffffffffffffffff1660008560006040518563ffffffff167c0100000000000000000000000000000000000000000000000000000000028152600401808573ffffffffffffffffffffffffffffffffffffffff1673ffffffffffffffffffffffffffffffffffffffff16815260200184815260200180602001836002811115610f4557fe5b60ff168152602001828103825284818151815260200191508051906020019080838360005b83811015610f85578082015181840152602081019050610f6a565b50505050905090810190601f168015610fb25780820380516001836020036101000a031916815260200191505b5095505050505050602060405180830381600087803b158015610fd457600080fd5b505af1158015610fe8573d6000803e3d6000fd5b505050506040513d6020811015610ffe57600080fd5b81019080805190602001909291905050501515611083576040517f08c379a000000000000000000000000000000000000000000000000000000000815260040180806020018281038252601a8152602001807f436f756c64206e6f742065786563757465207265636f7665727900000000000081525060200191505060405180910390fd5b5050505050565b600460003373ffffffffffffffffffffffffffffffffffffffff1673ffffffffffffffffffffffffffffffffffffffff16815260200190815260200160002060009054906101000a900460ff161515611171576040517f08c379a00000000000000000000000000000000000000000000000000000000081526004018080602001828103825260258152602001807f4d6574686f642063616e206f6e6c792062652063616c6c65642062792061206681526020017f7269656e6400000000000000000000000000000000000000000000000000000081525060400191505060405180910390fd5b6005600082815260200190815260200160002060009054906101000a900460ff16151515611207576040517f08c379a00000000000000000000000000000000000000000000000000000000081526004018080602001828103825260198152602001807f5265636f7665727920616c72656164792065786563757465640000000000000081525060200191505060405180910390fd5b60016006600083815260200190815260200160002060003373ffffffffffffffffffffffffffffffffffffffff1673ffffffffffffffffffffffffffffffffffffffff16815260200190815260200160002060006101000a81548160ff02191690831515021790555050565b600160009054906101000a900473ffffffffffffffffffffffffffffffffffffffff1673ffffffffffffffffffffffffffffffffffffffff163373ffffffffffffffffffffffffffffffffffffffff1614151561135e576040517f08c379a00000000000000000000000000000000000000000000000000000000081526004018080602001828103825260268152602001807f4d6574686f642063616e206f6e6c792062652063616c6c65642066726f6d206d81526020017f616e61676572000000000000000000000000000000000000000000000000000081525060400191505060405180910390fd5b600073ffffffffffffffffffffffffffffffffffffffff168173ffffffffffffffffffffffffffffffffffffffff1614151515611429576040517f08c379a00000000000000000000000000000000000000000000000000000000081526004018080602001828103825260248152602001807f496e76616c6964206d617374657220636f707920616464726573732070726f7681526020017f696465640000000000000000000000000000000000000000000000000000000081525060400191505060405180910390fd5b806000806101000a81548173ffffffffffffffffffffffffffffffffffffffff021916908373ffffffffffffffffffffffffffffffffffffffff16021790555050565b60008060008090505b600380549050811015611549576006600085815260200190815260200160002060006003838154811015156114a657fe5b9060005260206000200160009054906101000a900473ffffffffffffffffffffffffffffffffffffffff1673ffffffffffffffffffffffffffffffffffffffff1673ffffffffffffffffffffffffffffffffffffffff16815260200190815260200160002060009054906101000a900460ff16156115275781806001019250505b60025482141561153c57600192505050611550565b8080600101915050611475565b5060009150505b919050565b6040805190810160405280601681526020017f536f6369616c205265636f76657279204d6f64756c650000000000000000000081525081565b600081805190602001209050919050565b60066020528160005260406000206020528060005260406000206000915091509054906101000a900460ff1681565b6003818154811015156115dd57fe5b906000526020600020016000915054906101000a900473ffffffffffffffffffffffffffffffffffffffff1681565b60056020528060005260406000206000915054906101000a900460ff1681565b6040805190810160405280600581526020017f302e312e3000000000000000000000000000000000000000000000000000000081525081565b600073ffffffffffffffffffffffffffffffffffffffff16600160009054906101000a900473ffffffffffffffffffffffffffffffffffffffff1673ffffffffffffffffffffffffffffffffffffffff1614151561172b576040517f08c379a000000000000000000000000000000000000000000000000000000000815260040180806020018281038252601c8152602001807f4d616e616765722068617320616c7265616479206265656e207365740000000081525060200191505060405180910390fd5b33600160006101000a81548173ffffffffffffffffffffffffffffffffffffffff021916908373ffffffffffffffffffffffffffffffffffffffff160217905550565b8280548282559060005260206000209081019282156117e7579160200282015b828111156117e65782518260006101000a81548173ffffffffffffffffffffffffffffffffffffffff021916908373ffffffffffffffffffffffffffffffffffffffff1602179055509160200191906001019061178e565b5b5090506117f491906117f8565b5090565b61183891905b8082111561183457600081816101000a81549073ffffffffffffffffffffffffffffffffffffffff0219169055506001016117fe565b5090565b9056fea165627a7a72305820fafbbb829048592d4172fc258a2b962c54a5845bfee1d651ac5c68603a7c1cd80029",
  "source": "pragma solidity ^0.5.0;\nimport \"../base/Module.sol\";\nimport \"../base/ModuleManager.sol\";\nimport \"../base/OwnerManager.sol\";\nimport \"../common/Enum.sol\";\n\n\n/// @title Social Recovery Module - Allows to replace an owner without Safe confirmations if friends approve the replacement.\n/// @author Stefan George - <stefan@gnosis.pm>\ncontract SocialRecoveryModule is Module {\n\n    string public constant NAME = \"Social Recovery Module\";\n    string public constant VERSION = \"0.1.0\";\n\n    uint256 public threshold;\n    address[] public friends;\n\n    // isFriend mapping maps friend's address to friend status.\n    mapping (address => bool) public isFriend;\n    // isExecuted mapping maps data hash to execution status.\n    mapping (bytes32 => bool) public isExecuted;\n    // isConfirmed mapping maps data hash to friend's address to confirmation status.\n    mapping (bytes32 => mapping (address => bool)) public isConfirmed;\n\n    modifier onlyFriend() {\n        require(isFriend[msg.sender], \"Method can only be called by a friend\");\n        _;\n    }\n\n    /// @dev Setup function sets initial storage of contract.\n    /// @param _friends List of friends' addresses.\n    /// @param _threshold Required number of friends to confirm replacement.\n    function setup(address[] memory _friends, uint256 _threshold)\n        public\n    {\n        require(_threshold <= _friends.length, \"Threshold cannot exceed friends count\");\n        require(_threshold >= 2, \"At least 2 friends required\");\n        setManager();\n        // Set allowed friends.\n        for (uint256 i = 0; i < _friends.length; i++) {\n            address friend = _friends[i];\n            require(friend != address(0), \"Invalid friend address provided\");\n            require(!isFriend[friend], \"Duplicate friend address provided\");\n            isFriend[friend] = true;\n        }\n        friends = _friends;\n        threshold = _threshold;\n    }\n\n    /// @dev Allows a friend to confirm a Safe transaction.\n    /// @param dataHash Safe transaction hash.\n    function confirmTransaction(bytes32 dataHash)\n        public\n        onlyFriend\n    {\n        require(!isExecuted[dataHash], \"Recovery already executed\");\n        isConfirmed[dataHash][msg.sender] = true;\n    }\n\n    /// @dev Returns if Safe transaction is a valid owner replacement transaction.\n    /// @param prevOwner Owner that pointed to the owner to be replaced in the linked list\n    /// @param oldOwner Owner address to be replaced.\n    /// @param newOwner New owner address.\n    /// @return Returns if transaction can be executed.\n    function recoverAccess(address prevOwner, address oldOwner, address newOwner)\n        public\n        onlyFriend\n    {\n        bytes memory data = abi.encodeWithSignature(\"swapOwner(address,address,address)\", prevOwner, oldOwner, newOwner);\n        bytes32 dataHash = getDataHash(data);\n        require(!isExecuted[dataHash], \"Recovery already executed\");\n        require(isConfirmedByRequiredFriends(dataHash), \"Recovery has not enough confirmations\");\n        isExecuted[dataHash] = true;\n        require(manager.execTransactionFromModule(address(manager), 0, data, Enum.Operation.Call), \"Could not execute recovery\");\n    }\n\n    /// @dev Returns if Safe transaction is a valid owner replacement transaction.\n    /// @param dataHash Data hash.\n    /// @return Confirmation status.\n    function isConfirmedByRequiredFriends(bytes32 dataHash)\n        public\n        view\n        returns (bool)\n    {\n        uint256 confirmationCount;\n        for (uint256 i = 0; i < friends.length; i++) {\n            if (isConfirmed[dataHash][friends[i]])\n                confirmationCount++;\n            if (confirmationCount == threshold)\n                return true;\n        }\n        return false;\n    }\n\n    /// @dev Returns hash of data encoding owner replacement.\n    /// @param data Data payload.\n    /// @return Data hash.\n    function getDataHash(bytes memory data)\n        public\n        pure\n        returns (bytes32)\n    {\n        return keccak256(data);\n    }\n}\n",
  "sourcePath": "/Users/antonvs/Projects/sandbox/gnosis-safe/contracts/safe-contracts/modules/SocialRecoveryModule.sol",
  "compiler": {
    "name": "solc",
    "version": "0.5.0+commit.1d4f565a.Emscripten.clang"
  },
  "schemaVersion": "3.0.1",
  "updatedAt": "2019-01-25T22:22:23.854Z",
  "devdoc": {
    "author": "Stefan George - <stefan@gnosis.pm>",
    "methods": {
      "changeMasterCopy(address)": {
        "details": "Allows to upgrade the contract. This can only be done via a Safe transaction.",
        "params": {
          "_masterCopy": "New contract address."
        }
      },
      "confirmTransaction(bytes32)": {
        "details": "Allows a friend to confirm a Safe transaction.",
        "params": {
          "dataHash": "Safe transaction hash."
        }
      },
      "getDataHash(bytes)": {
        "details": "Returns hash of data encoding owner replacement.",
        "params": {
          "data": "Data payload."
        },
        "return": "Data hash."
      },
      "isConfirmedByRequiredFriends(bytes32)": {
        "details": "Returns if Safe transaction is a valid owner replacement transaction.",
        "params": {
          "dataHash": "Data hash."
        },
        "return": "Confirmation status."
      },
      "recoverAccess(address,address,address)": {
        "details": "Returns if Safe transaction is a valid owner replacement transaction.",
        "params": {
          "newOwner": "New owner address.",
          "oldOwner": "Owner address to be replaced.",
          "prevOwner": "Owner that pointed to the owner to be replaced in the linked list"
        },
        "return": "Returns if transaction can be executed."
      },
      "setup(address[],uint256)": {
        "details": "Setup function sets initial storage of contract.",
        "params": {
          "_friends": "List of friends' addresses.",
          "_threshold": "Required number of friends to confirm replacement."
        }
      }
    },
    "title": "Social Recovery Module - Allows to replace an owner without Safe confirmations if friends approve the replacement."
  },
  "userdoc": {
    "methods": {}
  }
}