{
  "contractName": "WhitelistModule",
  "abi": [
    {
      "constant": true,
      "inputs": [
        {
          "name": "",
          "type": "address"
        }
      ],
      "name": "isWhitelisted",
      "outputs": [
        {
          "name": "",
          "type": "bool"
        }
      ],
      "payable": false,
      "stateMutability": "view",
      "type": "function"
    },
    {
      "constant": true,
      "inputs": [],
      "name": "manager",
      "outputs": [
        {
          "name": "",
          "type": "address"
        }
      ],
      "payable": false,
      "stateMutability": "view",
      "type": "function"
    },
    {
      "constant": false,
      "inputs": [
        {
          "name": "_masterCopy",
          "type": "address"
        }
      ],
      "name": "changeMasterCopy",
      "outputs": [],
      "payable": false,
      "stateMutability": "nonpayable",
      "type": "function"
    },
    {
      "constant": true,
      "inputs": [],
      "name": "NAME",
      "outputs": [
        {
          "name": "",
          "type": "string"
        }
      ],
      "payable": false,
      "stateMutability": "view",
      "type": "function"
    },
    {
      "constant": true,
      "inputs": [],
      "name": "VERSION",
      "outputs": [
        {
          "name": "",
          "type": "string"
        }
      ],
      "payable": false,
      "stateMutability": "view",
      "type": "function"
    },
    {
      "constant": false,
      "inputs": [
        {
          "name": "accounts",
          "type": "address[]"
        }
      ],
      "name": "setup",
      "outputs": [],
      "payable": false,
      "stateMutability": "nonpayable",
      "type": "function"
    },
    {
      "constant": false,
      "inputs": [
        {
          "name": "account",
          "type": "address"
        }
      ],
      "name": "addToWhitelist",
      "outputs": [],
      "payable": false,
      "stateMutability": "nonpayable",
      "type": "function"
    },
    {
      "constant": false,
      "inputs": [
        {
          "name": "account",
          "type": "address"
        }
      ],
      "name": "removeFromWhitelist",
      "outputs": [],
      "payable": false,
      "stateMutability": "nonpayable",
      "type": "function"
    },
    {
      "constant": false,
      "inputs": [
        {
          "name": "to",
          "type": "address"
        },
        {
          "name": "value",
          "type": "uint256"
        },
        {
          "name": "data",
          "type": "bytes"
        }
      ],
      "name": "executeWhitelisted",
      "outputs": [
        {
          "name": "",
          "type": "bool"
        }
      ],
      "payable": false,
      "stateMutability": "nonpayable",
      "type": "function"
    }
  ],
  "bytecode": "0x608060405234801561001057600080fd5b50611394806100206000396000f3fe608060405260043610610099576000357c0100000000000000000000000000000000000000000000000000000000900463ffffffff1680632f2f3be11461009e5780633af32abf146101a8578063481c6a75146102115780637de7edef146102685780638ab1d681146102b9578063a3f4df7e1461030a578063bd5b853b1461039a578063e43252d71461045f578063ffa1ad74146104b0575b600080fd5b3480156100aa57600080fd5b5061018e600480360360608110156100c157600080fd5b81019080803573ffffffffffffffffffffffffffffffffffffffff169060200190929190803590602001909291908035906020019064010000000081111561010857600080fd5b82018360208201111561011a57600080fd5b8035906020019184600183028401116401000000008311171561013c57600080fd5b91908080601f016020809104026020016040519081016040528093929190818152602001838380828437600081840152601f19601f820116905080830192505050505050509192919290505050610540565b604051808215151515815260200191505060405180910390f35b3480156101b457600080fd5b506101f7600480360360208110156101cb57600080fd5b81019080803573ffffffffffffffffffffffffffffffffffffffff1690602001909291905050506109b8565b604051808215151515815260200191505060405180910390f35b34801561021d57600080fd5b506102266109d8565b604051808273ffffffffffffffffffffffffffffffffffffffff1673ffffffffffffffffffffffffffffffffffffffff16815260200191505060405180910390f35b34801561027457600080fd5b506102b76004803603602081101561028b57600080fd5b81019080803573ffffffffffffffffffffffffffffffffffffffff1690602001909291905050506109fe565b005b3480156102c557600080fd5b50610308600480360360208110156102dc57600080fd5b81019080803573ffffffffffffffffffffffffffffffffffffffff169060200190929190505050610bf7565b005b34801561031657600080fd5b5061031f610dfe565b6040518080602001828103825283818151815260200191508051906020019080838360005b8381101561035f578082015181840152602081019050610344565b50505050905090810190601f16801561038c5780820380516001836020036101000a031916815260200191505b509250505060405180910390f35b3480156103a657600080fd5b5061045d600480360360208110156103bd57600080fd5b81019080803590602001906401000000008111156103da57600080fd5b8201836020820111156103ec57600080fd5b8035906020019184602083028401116401000000008311171561040e57600080fd5b919080806020026020016040519081016040528093929190818152602001838360200280828437600081840152601f19601f820116905080830192505050505050509192919290505050610e37565b005b34801561046b57600080fd5b506104ae6004803603602081101561048257600080fd5b81019080803573ffffffffffffffffffffffffffffffffffffffff169060200190929190505050610f79565b005b3480156104bc57600080fd5b506104c5611226565b6040518080602001828103825283818151815260200191508051906020019080838360005b838110156105055780820151818401526020810190506104ea565b50505050905090810190601f1680156105325780820380516001836020036101000a031916815260200191505b509250505060405180910390f35b6000600160009054906101000a900473ffffffffffffffffffffffffffffffffffffffff1673ffffffffffffffffffffffffffffffffffffffff16632f54bf6e336040518263ffffffff167c0100000000000000000000000000000000000000000000000000000000028152600401808273ffffffffffffffffffffffffffffffffffffffff1673ffffffffffffffffffffffffffffffffffffffff16815260200191505060206040518083038186803b1580156105fd57600080fd5b505afa158015610611573d6000803e3d6000fd5b505050506040513d602081101561062757600080fd5b810190808051906020019092919050505015156106d2576040517f08c379a00000000000000000000000000000000000000000000000000000000081526004018080602001828103825260258152602001807f4d6574686f642063616e206f6e6c792062652063616c6c656420627920616e2081526020017f6f776e657200000000000000000000000000000000000000000000000000000081525060400191505060405180910390fd5b600260008573ffffffffffffffffffffffffffffffffffffffff1673ffffffffffffffffffffffffffffffffffffffff16815260200190815260200160002060009054906101000a900460ff1615156107b9576040517f08c379a00000000000000000000000000000000000000000000000000000000081526004018080602001828103825260218152602001807f546172676574206163636f756e74206973206e6f742077686974656c6973746581526020017f640000000000000000000000000000000000000000000000000000000000000081525060400191505060405180910390fd5b600160009054906101000a900473ffffffffffffffffffffffffffffffffffffffff1673ffffffffffffffffffffffffffffffffffffffff1663468721a785858560006040518563ffffffff167c0100000000000000000000000000000000000000000000000000000000028152600401808573ffffffffffffffffffffffffffffffffffffffff1673ffffffffffffffffffffffffffffffffffffffff1681526020018481526020018060200183600281111561087357fe5b60ff168152602001828103825284818151815260200191508051906020019080838360005b838110156108b3578082015181840152602081019050610898565b50505050905090810190601f1680156108e05780820380516001836020036101000a031916815260200191505b5095505050505050602060405180830381600087803b15801561090257600080fd5b505af1158015610916573d6000803e3d6000fd5b505050506040513d602081101561092c57600080fd5b810190808051906020019092919050505015156109b1576040517f08c379a000000000000000000000000000000000000000000000000000000000815260040180806020018281038252601d8152602001807f436f756c64206e6f742065786563757465207472616e73616374696f6e00000081525060200191505060405180910390fd5b9392505050565b60026020528060005260406000206000915054906101000a900460ff1681565b600160009054906101000a900473ffffffffffffffffffffffffffffffffffffffff1681565b600160009054906101000a900473ffffffffffffffffffffffffffffffffffffffff1673ffffffffffffffffffffffffffffffffffffffff163373ffffffffffffffffffffffffffffffffffffffff16141515610ae9576040517f08c379a00000000000000000000000000000000000000000000000000000000081526004018080602001828103825260268152602001807f4d6574686f642063616e206f6e6c792062652063616c6c65642066726f6d206d81526020017f616e61676572000000000000000000000000000000000000000000000000000081525060400191505060405180910390fd5b600073ffffffffffffffffffffffffffffffffffffffff168173ffffffffffffffffffffffffffffffffffffffff1614151515610bb4576040517f08c379a00000000000000000000000000000000000000000000000000000000081526004018080602001828103825260248152602001807f496e76616c6964206d617374657220636f707920616464726573732070726f7681526020017f696465640000000000000000000000000000000000000000000000000000000081525060400191505060405180910390fd5b806000806101000a81548173ffffffffffffffffffffffffffffffffffffffff021916908373ffffffffffffffffffffffffffffffffffffffff16021790555050565b600160009054906101000a900473ffffffffffffffffffffffffffffffffffffffff1673ffffffffffffffffffffffffffffffffffffffff163373ffffffffffffffffffffffffffffffffffffffff16141515610ce2576040517f08c379a00000000000000000000000000000000000000000000000000000000081526004018080602001828103825260268152602001807f4d6574686f642063616e206f6e6c792062652063616c6c65642066726f6d206d81526020017f616e61676572000000000000000000000000000000000000000000000000000081525060400191505060405180910390fd5b600260008273ffffffffffffffffffffffffffffffffffffffff1673ffffffffffffffffffffffffffffffffffffffff16815260200190815260200160002060009054906101000a900460ff161515610da3576040517f08c379a000000000000000000000000000000000000000000000000000000000815260040180806020018281038252601a8152602001807f4163636f756e74206973206e6f742077686974656c697374656400000000000081525060200191505060405180910390fd5b6000600260008373ffffffffffffffffffffffffffffffffffffffff1673ffffffffffffffffffffffffffffffffffffffff16815260200190815260200160002060006101000a81548160ff02191690831515021790555050565b6040805190810160405280601081526020017f57686974656c697374204d6f64756c650000000000000000000000000000000081525081565b610e3f61125f565b60008090505b8151811015610f755760008282815181101515610e5e57fe5b906020019060200201519050600073ffffffffffffffffffffffffffffffffffffffff168173ffffffffffffffffffffffffffffffffffffffff1614151515610f0f576040517f08c379a00000000000000000000000000000000000000000000000000000000081526004018080602001828103825260188152602001807f496e76616c6964206163636f756e742070726f7669646564000000000000000081525060200191505060405180910390fd5b6001600260008373ffffffffffffffffffffffffffffffffffffffff1673ffffffffffffffffffffffffffffffffffffffff16815260200190815260200160002060006101000a81548160ff021916908315150217905550508080600101915050610e45565b5050565b600160009054906101000a900473ffffffffffffffffffffffffffffffffffffffff1673ffffffffffffffffffffffffffffffffffffffff163373ffffffffffffffffffffffffffffffffffffffff16141515611064576040517f08c379a00000000000000000000000000000000000000000000000000000000081526004018080602001828103825260268152602001807f4d6574686f642063616e206f6e6c792062652063616c6c65642066726f6d206d81526020017f616e61676572000000000000000000000000000000000000000000000000000081525060400191505060405180910390fd5b600073ffffffffffffffffffffffffffffffffffffffff168173ffffffffffffffffffffffffffffffffffffffff1614151515611109576040517f08c379a00000000000000000000000000000000000000000000000000000000081526004018080602001828103825260188152602001807f496e76616c6964206163636f756e742070726f7669646564000000000000000081525060200191505060405180910390fd5b600260008273ffffffffffffffffffffffffffffffffffffffff1673ffffffffffffffffffffffffffffffffffffffff16815260200190815260200160002060009054906101000a900460ff161515156111cb576040517f08c379a000000000000000000000000000000000000000000000000000000000815260040180806020018281038252601e8152602001807f4163636f756e7420697320616c72656164792077686974656c6973746564000081525060200191505060405180910390fd5b6001600260008373ffffffffffffffffffffffffffffffffffffffff1673ffffffffffffffffffffffffffffffffffffffff16815260200190815260200160002060006101000a81548160ff02191690831515021790555050565b6040805190810160405280600581526020017f302e312e3000000000000000000000000000000000000000000000000000000081525081565b600073ffffffffffffffffffffffffffffffffffffffff16600160009054906101000a900473ffffffffffffffffffffffffffffffffffffffff1673ffffffffffffffffffffffffffffffffffffffff16141515611325576040517f08c379a000000000000000000000000000000000000000000000000000000000815260040180806020018281038252601c8152602001807f4d616e616765722068617320616c7265616479206265656e207365740000000081525060200191505060405180910390fd5b33600160006101000a81548173ffffffffffffffffffffffffffffffffffffffff021916908373ffffffffffffffffffffffffffffffffffffffff16021790555056fea165627a7a72305820230f00784e8de02f4479c681eb855950c05598e62e61d500b4a3c18db0563a1f0029",
  "source": "pragma solidity ^0.5.0;\nimport \"../base/Module.sol\";\nimport \"../base/ModuleManager.sol\";\nimport \"../base/OwnerManager.sol\";\nimport \"../common/Enum.sol\";\n\n\n/// @title Whitelist Module - Allows to execute transactions to whitelisted addresses without confirmations.\n/// @author Stefan George - <stefan@gnosis.pm>\ncontract WhitelistModule is Module {\n\n    string public constant NAME = \"Whitelist Module\";\n    string public constant VERSION = \"0.1.0\";\n\n    // isWhitelisted mapping maps destination address to boolean.\n    mapping (address => bool) public isWhitelisted;\n\n    /// @dev Setup function sets initial storage of contract.\n    /// @param accounts List of whitelisted accounts.\n    function setup(address[] memory accounts)\n        public\n    {\n        setManager();\n        for (uint256 i = 0; i < accounts.length; i++) {\n            address account = accounts[i];\n            require(account != address(0), \"Invalid account provided\");\n            isWhitelisted[account] = true;\n        }\n    }\n\n    /// @dev Allows to add destination to whitelist. This can only be done via a Safe transaction.\n    /// @param account Destination address.\n    function addToWhitelist(address account)\n        public\n        authorized\n    {\n        require(account != address(0), \"Invalid account provided\");\n        require(!isWhitelisted[account], \"Account is already whitelisted\");\n        isWhitelisted[account] = true;\n    }\n\n    /// @dev Allows to remove destination from whitelist. This can only be done via a Safe transaction.\n    /// @param account Destination address.\n    function removeFromWhitelist(address account)\n        public\n        authorized\n    {\n        require(isWhitelisted[account], \"Account is not whitelisted\");\n        isWhitelisted[account] = false;\n    }\n\n    /// @dev Returns if Safe transaction is to a whitelisted destination.\n    /// @param to Whitelisted destination address.\n    /// @param value Not checked.\n    /// @param data Not checked.\n    /// @return Returns if transaction can be executed.\n    function executeWhitelisted(address to, uint256 value, bytes memory data)\n        public\n        returns (bool)\n    {\n        // Only Safe owners are allowed to execute transactions to whitelisted accounts.\n        require(OwnerManager(address(manager)).isOwner(msg.sender), \"Method can only be called by an owner\");\n        require(isWhitelisted[to], \"Target account is not whitelisted\");\n        require(manager.execTransactionFromModule(to, value, data, Enum.Operation.Call), \"Could not execute transaction\");\n    }\n}\n",
  "sourcePath": "/Users/antonvs/Projects/sandbox/gnosis-safe/contracts/safe-contracts/modules/WhitelistModule.sol",
  "compiler": {
    "name": "solc",
    "version": "0.5.0+commit.1d4f565a.Emscripten.clang"
  },
  "schemaVersion": "3.0.1",
  "updatedAt": "2019-01-25T22:22:23.857Z",
  "devdoc": {
    "author": "Stefan George - <stefan@gnosis.pm>",
    "methods": {
      "addToWhitelist(address)": {
        "details": "Allows to add destination to whitelist. This can only be done via a Safe transaction.",
        "params": {
          "account": "Destination address."
        }
      },
      "changeMasterCopy(address)": {
        "details": "Allows to upgrade the contract. This can only be done via a Safe transaction.",
        "params": {
          "_masterCopy": "New contract address."
        }
      },
      "executeWhitelisted(address,uint256,bytes)": {
        "details": "Returns if Safe transaction is to a whitelisted destination.",
        "params": {
          "data": "Not checked.",
          "to": "Whitelisted destination address.",
          "value": "Not checked."
        },
        "return": "Returns if transaction can be executed."
      },
      "removeFromWhitelist(address)": {
        "details": "Allows to remove destination from whitelist. This can only be done via a Safe transaction.",
        "params": {
          "account": "Destination address."
        }
      },
      "setup(address[])": {
        "details": "Setup function sets initial storage of contract.",
        "params": {
          "accounts": "List of whitelisted accounts."
        }
      }
    },
    "title": "Whitelist Module - Allows to execute transactions to whitelisted addresses without confirmations."
  },
  "userdoc": {
    "methods": {}
  }
}